:020000040800F2
:1000000000000220C91500089D0300089F03000896
:10001000A1030008A3030008A503000800000000D6
:10002000000000000000000000000000A70300081E
:10003000A903000800000000AB030008AD0300089E
:1000400019160008191600081916000819160008D4
:1000500019160008191600081916000819160008C4
:1000600019160008191600081916000819160008B4
:1000700019160008191600081916000819160008A4
:100080001916000819160008191600081916000894
:100090001916000819160008191600081916000884
:1000A0001916000819160008191600081916000874
:1000B0001916000819160008191600081916000864
:1000C0001916000819160008191600081916000854
:1000D0001916000819160008191600081916000844
:1000E0001916000819160008191600081916000834
:1000F0001916000819160008191600081916000824
:100100001916000819160008191600081916000813
:100110001916000819160008191600081916000803
:1001200019160008191600081916000819160008F3
:1001300019160008191600081916000819160008E3
:1001400019160008191600081916000819160008D3
:1001500019160008191600081916000819160008C3
:1001600019160008191600081916000819160008B3
:1001700019160008191600081916000800000000DA
:08018000191600081916000809
:1001880053B94AB9002908BF00281CBF4FF0FF31F6
:100198004FF0FF3000F00CB8ADF1080C6DE904CE5B
:1001A80001F064FADDF804E0DDE9022304B07047E9
:1001B800704700BF10B5054C237833B9044B13B111
:1001C8000448AFF300800123237010BD0C00002009
:1001D800000000003019000808B5034B1BB10349A3
:1001E8000348AFF3008008BD0000000010000020A5
:1001F8003019000830B589B000240394049405949C
:10020800069407940094194B1A6B42F080021A6303
:100218001A6B02F080020092009A01941A6B42F065
:1002280001021A631A6B02F001020192019A029408
:100238001A6B42F008021A631B6B03F0080302935F
:10024800029B0B4D22464FF44041284600F08AFBA2
:100258004FF440430393012304930594069403A9A0
:10026800284600F089FA09B030BD00BF00380240C6
:10027800000C024072B6FEE700B595B030220021AE
:1002880008A801F0C6F90023039304930593069385
:1002980007930193214A116C41F080511164126C4B
:1002A80002F080520192019A02931D4B1A6842F49F
:1002B80080421A601B6803F480430293029B012367
:1002C80008934FF48033099302230E934FF480026E
:1002D8000F92082210924FF4A872119212930723DA
:1002E800139308A800F04EFB98B90F230393022339
:1002F8000493002305934FF4A05306934FF48053BF
:100308000793052103A800F0A7FD20B915B05DF8F3
:1003180004FBFFF7AFFFFFF7ADFF00BF0038024057
:100328000070004008B500F07DF9FFF7A5FFFFF762
:1003380061FF00F011F900F0B9F84FF400410448EA
:1003480000F016FB4FF47A7000F098F9F5E700BF5B
:10035800000C024000B583B0002100910C4B5A6C90
:1003680042F480425A645A6C02F480420092009A25
:1003780001911A6C42F080521A641B6C03F080538E
:100388000193019B072000F0C1F903B05DF804FB5D
:1003980000380240FEE7FEE7FEE7FEE7FEE77047AB
:1003A8007047704708B500F057F908BD034AD2F8FE
:1003B800883043F47003C2F88830704700ED00E0DD
:1003C8000368B3F1804F00D0704782B000230193D7
:1003D800054B1A6C42F001021A641B6C03F001030E
:1003E8000193019B02B07047003802400268094B34
:1003F8009A4200D0704782B000230193064B1A6CD2
:1004080042F004021A641B6C03F004030193019B7D
:1004180002B07047000800400038024000B589B0BB
:100428000023039304930593069307930368B3F19A
:10043800804F05D0194A934218D009B05DF804FBE3
:1004480000230193164B1A6B42F001021A631B6BCF
:1004580003F001030193019B0123039302220492F9
:10046800079303A90F4800F087F9E6E700230293F2
:100478000B4B1A6B42F008021A631B6B03F008035C
:100488000293029B4FF48053039302230493079330
:1004980003A9054800F070F9CFE700BF0008004045
:1004A8000038024000000240000C024000B58FB046
:1004B80000230A930B930C930D93089309930193CC
:1004C80002930393049305930693079321484FF0EF
:1004D8008042026043608360FF22C2600361802320
:1004E800836100F09DFE28BB4FF480530A930AA94C
:1004F800184800F0A0FF00BB164800F0BDFEF8B990
:1005080000230893099308A9124801F013F8D0B9F9
:10051800602301931923029300220392059201A9F3
:100528000C4800F00DFF88B90A48FFF777FF0FB0B5
:100538005DF804FBFFF79EFED6E7FFF79BFEDBE7BF
:10054800FFF798FEDCE7FFF795FEE1E7FFF792FE7D
:10055800EAE700BF7000002000B58BB000230893C5
:1005680009930193029303930493059306930793C6
:100578001748184A0260436083604FF6FF72C260F2
:100588000361836100F078FEC0B9002308930993E2
:1005980008A90F4800F0CEFF98B960230193002204
:1005A80002920392059201A9094800F0C9FE58B9C0
:1005B8000748FFF733FF0BB05DF804FBFFF75AFE5F
:1005C800E3E7FFF757FEE8E7FFF754FEF0E700BF61
:1005D800280000200008004010B504460E4B1A7889
:1005E8004FF47A73B3FBF2F30C4A1068B0FBF3F0E4
:1005F80000F0AEF868B90F2C01D901200AE00022FA
:1006080021464FF0FF3000F093F8054B1C600020A6
:1006180000E0012010BD00BF040000200000002001
:100628000800002008B50B4B1A6842F400721A60E3
:100638001A6842F480621A601A6842F480721A607A
:10064800032000F063F80020FFF7C6FFFFF782FEE3
:10065800002008BD003C0240034A1168034B1B7888
:100668000B441360704700BFB8000020040000204E
:10067800014B1868704700BFB800002038B5044621
:10068800FFF7F6FF0546B4F1FF3F02D0044B1B7895
:100698001C44FFF7EDFF401BA042FAD338BD00BF52
:1006A80004000020002808DB0901C9B200F16040FD
:1006B80000F5614080F80013704700F00F00090151
:1006C800C9B2014B1954704714ED00E000B500F0B1
:1006D8000700C0F1070CBCF1040F28BF4FF0040C51
:1006E800031D062B0FD9C31E4FF0FF3E0EFA0CF068
:1006F80021EA000199400EFA03FE22EA0E0241EABD
:1007080002005DF804FB0023EEE70000074AD36807
:1007180023F4E0631B041B0C000200F4E0600343B5
:1007280043F0BF6343F40033D360704700ED00E04B
:1007380010B50446054BD868C0F30220FFF7C6FF82
:1007480001462046FFF7AEFF10BD00BF00ED00E0F8
:100758000138B0F1807F0BD24FF0E0235861054A91
:10076800F02182F823100020986107221A6170474F
:100778000120704700ED00E000230F2B00F2E98014
:1007880070B582B065E085684FEA430E032404FA29
:100798000EF425EA0405CC6804FA0EF42C438460B0
:1007A800446824EA02044A68C2F300129A402243C9
:1007B80042605CE0DC08083450F8242003F00705A8
:1007C800AD004FF00F0E0EFA05FE22EA0E0E0A6972
:1007D800AA4042EA0E0240F824205CE0072200E02A
:1007E800002202FA0EF22A4302345A4D45F8242018
:1007F800594A94686FEA0C0224EA0C054E6816F40C
:10080800801F01D04CEA0405534CA560E46802EA55
:1008180004054E6816F4001F01D04CEA04054E4C3E
:10082800E560646802EA04054E6816F4003F01D0EA
:100838004CEA0405484C6560246822404D6815F46C
:10084800803F01D04CEA0402434C226001330F2B55
:100858007DD801229A400C6804EA020C32EA0404AA
:10086800F4D14C6804F00304013C012C8BD94A688C
:1008780002F00302032A09D0C4685D000322AA40DB
:1008880024EA02048A68AA402243C2604A6802F045
:100898000302022A8ED004684FEA430E032202FAAA
:1008A8000EF224EA02044A6802F0030202FA0EF287
:1008B800224302604A6812F4403FC7D000220192E6
:1008C800264A546C44F480445464526C02F48042C6
:1008D8000192019A9C08A51C1E4A52F8255003F063
:1008E800030E4FEA8E0E0F2202FA0EF225EA0205D7
:1008F8001B4A90423FF474AF02F5806290421AD0CE
:1009080002F58062904218D002F58062904216D0BB
:1009180002F58062904214D002F58062904212D0B3
:1009280002F58062904210D002F5806290423FF456
:1009380055AF082255E7012253E7022251E7032267
:100948004FE704224DE705224BE7062249E702B0AC
:1009580070BD704700380140003C0140003802403B
:10096800000002400AB18161704709048161704743
:10097800436901EA030221EA030141EA0241816174
:1009880070470000002800F0E08170B582B004468E
:10099800036813F0010F3BD09F4B9B6803F00C03D7
:1009A800042B2CD09C4B9B6803F00C03082B21D004
:1009B8006368B3F5803F4FD0B3F5A02F52D0964B64
:1009C8001A6822F480321A601A6822F480221A60A7
:1009D8006368002B50D0FFF74BFE05468E4B1B6813
:1009E80013F4003F14D1FFF743FE401B6428F5D9E8
:1009F8000320B1E1884B5B6813F4800FD8D0864B95
:100A08001B6813F4003F03D06368002B00F09F813C
:100A1800236813F0020F54D07F4B9B6813F00C0F20
:100A28003ED07D4B9B6803F00C03082B33D0E36862
:100A3800002B68D0794B01221A60FFF719FE054692
:100A4800754B1B6813F0020F54D1FFF711FE401BC2
:100A58000228F5D903207FE16F4A136843F48033F5
:100A68001360B5E76C4B1A6842F480221A601A6862
:100A780042F480321A60ABE7FFF7FAFD0546664B91
:100A88001B6813F4003FC3D0FFF7F2FD401B642836
:100A9800F5D9032060E1604B5B6813F4800FC6D181
:100AA8005D4B1B6813F0020F03D0E368012B40F085
:100AB8005081594A136823F0F803216943EAC103B6
:100AC8001360236813F0080F42D063696BB3534B6C
:100AD8000122C3F8802EFFF7CBFD05464E4B5B6F16
:100AE80013F0020F34D1FFF7C3FD401B0228F5D9DC
:100AF800032031E1484A136823F0F803216943EAE7
:100B0800C1031360DDE7454B00221A60FFF7B0FD13
:100B18000546414B1B6813F0020FD2D0FFF7A8FD22
:100B2800401B0228F5D9032016E13C4B0022C3F8EC
:100B3800802EFFF79DFD0546374B5B6F13F0020FC4
:100B480006D0FFF795FD401B0228F5D9032003E1E5
:100B5800236813F0040F77D02F4B1B6C13F0805FC2
:100B680033D1002301932C4B1A6C42F080521A6443
:100B78001B6C03F080530193019B0125284B1B68D4
:100B880013F4807F23D0A368012B34D0052B38D0F1
:100B9800214B1A6F22F001021A671A6F22F0040221
:100BA8001A67A368002B3DD0FFF762FD06461A4B73
:100BB8001B6F13F0020F46D1FFF75AFD801B41F25D
:100BC80088339842F3D90320C6E00025D6E7144AB3
:100BD800136843F480731360FFF74AFD0646104B11
:100BE8001B6813F4807FCED1FFF742FD801B0228DB
:100BF800F5D90320B0E0084A136F43F001031367E7
:100C0800CFE7054B1A6F42F004021A671A6F42F0D9
:100C180001021A67C5E700BF0038024000004742DA
:100C280000700040FFF724FD0646524B1B6F13F07F
:100C3800020F08D0FFF71CFD801B41F28833984251
:100C4800F3D9032088E0EDB9A369002B00F0838075
:100C5800484A926802F00C02082A51D0022B17D099
:100C6800454B00221A66FFF703FD0446414B1B68FB
:100C780013F0007F42D0FFF7FBFC001B0228F5D9D8
:100C8800032069E03B4A136C23F080531364DBE7CD
:100C9800394B00221A66FFF7EBFC0546354B1B68FB
:100CA80013F0007F06D0FFF7E3FC401B0228F5D9BC
:100CB800032051E0E369226A1343626A43EA82131C
:100CC800A26A5208013A43EA0243E26A43EA02632B
:100CD800284A5360284B01221A66FFF7C9FC0446CC
:100CE800244B1B6813F0007F06D1FFF7C1FC001BE3
:100CF8000228F5D903202FE000202DE000202BE06A
:100D0800012B2BD01B4B5B6803F48001E2699142F5
:100D180026D103F03F02216A8A4223D1616A47F64D
:100D2800C0721A40B2EB811F1ED103F44031A26A8F
:100D38005208013AB1EB024F18D103F07063E26A2E
:100D4800B3EB026F14D1002006E0012070470120A8
:100D580002E0012000E0002002B070BD0120FBE7A6
:100D68000120F9E70120F7E70120F5E70120F3E783
:100D78000120F1E7003802400000474208B5334B34
:100D88009B6803F00C03042B5BD0082B5BD12F4B23
:100D98005A6802F03F025B6813F4800F2CD02B4B8B
:100DA8005868C0F388104FEA401CBCEB000C6EEB8F
:100DB8000E0E4FEA8E1343EA9C634FEA8C11B1EB97
:100DC8000C0163EB0E03DB0043EA5173C90011EB1E
:100DD800000C43F10003590200234FEA4C2041EA7A
:100DE800DC51FFF7CDF9194B5B68C3F301430133BD
:100DF8005B00B0FBF3F008BD144B5868C0F38810D3
:100E08004FEA401CBCEB000C6EEB0E0E4FEA8E1343
:100E180043EA9C634FEA8C11B1EB0C0163EB0E03C0
:100E2800DB0043EA5173C90011EB000C43F10003E6
:100E3800990200234FEA8C2041EA9C51FFF7A0F960
:100E4800D1E70348D7E70348D5E700BF0038024099
:100E580000127A000024F400002800F09B8070B58E
:100E68000D4604464F4B1B6803F007038B4208D21C
:100E7800CBB24C4A1370136803F007038B4240F05F
:100E88008B80236813F0020F17D013F0040F04D0DF
:100E9800454A936843F4E0539360236813F0080FBE
:100EA80004D0414A936843F4604393603E4A936890
:100EB80023F0F003A1680B439360236813F0010F3C
:100EC80032D06368012B21D09A1E012A25D9364ACF
:100ED800126812F0020F61D033498A6822F00302C7
:100EE80013438B60FFF7C4FB06462F4B9B6803F048
:100EF8000C036268B3EB820F16D0FFF7B9FB801BB7
:100F080041F288339842F0D9032042E0264A126819
:100F180012F4003FE0D101203BE0234A126812F0AE
:100F2800007FD9D1012034E01E4B1B6803F0070372
:100F3800AB4207D9EAB21B4B1A701B6803F00703D0
:100F4800AB422DD1236813F0040F06D0164A9368DC
:100F580023F4E053E1680B439360236813F0080F10
:100F680007D0114A936823F46043216943EAC10317
:100F78009360FFF703FF0C4B9B68C3F303130B4A03
:100F8800D35CD8400A4B18600A4B1868FFF724FB5B
:100F9800002070BD012070470120FAE70120F8E722
:100FA8000120F6E7003C02400038024048190008DA
:100FB800000000200800002030B4036A026A22F012
:100FC800010202624268846924F0730C0C6844EAE6
:100FD8000C0423F0020C8B6843EA0C03114DA84261
:100FE80003D005F58065A84205D123F00803CD6834
:100FF8002B4323F004030B4DA84203D005F580656D
:10100800A84207D122F440724D6945EA020C8A6968
:1010180042EA0C02426084614A684263036230BC5F
:10102800704700BF0000014030B4036A026A22F42E
:10103800807202624268C46924F0730C0C6844EA46
:101048000C0523F400738C6843EA0423114CA04276
:1010580003D004F58064A04206D123F40063CC6871
:1010680043EA042323F480630A4CA04203D004F526
:101078008064A04207D122F440524C6942EA04122B
:101088008C6942EA04124260C5614A68C26303621D
:1010980030BC70470000014030B4036A026A22F491
:1010A800805202624468C26922F4E6420D6842EA4C
:1010B800052223F400538D6843EA0533094DA842FD
:1010C80003D005F58065A84204D124F480444D6915
:1010D80044EA85144460C2614A680264036230BC11
:1010E800704700BF0000014010B4036A046A24F08E
:1010F80001040462846924F0F00C4CEA021223F023
:101108000A030B43826103625DF8044B704710B415
:10111800036A046A24F010040462846924F4704C9D
:101128004CEA023223F0A00343EA0113826103620E
:101138005DF8044B7047836823F070030B4343F05A
:1011480007038360704700000368344A904212D056
:10115800B0F1804F0FD0A2F57C4290420BD002F53F
:101168008062904207D002F58062904203D002F577
:101178007842904203D123F070034A681343274A08
:1011880090422AD0B0F1804F27D0A2F57C429042FD
:1011980023D002F5806290421FD002F5806290420F
:1011A8001BD002F57842904217D002F57052904257
:1011B80013D002F5806290420FD002F5806290420F
:1011C8000BD0A2F59832904207D002F58062904287
:1011D80003D002F58062904203D123F44073CA68B9
:1011E800134323F080034A69134303608B68C36287
:1011F8000B688362094B984203D003F580639842D9
:1012080001D10B69036301234361036913F0010FE3
:1012180003D0036923F00103036170470000014014
:1012280040B310B5044690F83D30F3B1022384F87A
:101238003D30214651F8040BFFF786FF012384F85F
:10124800463084F83E3084F83F3084F8403084F8E3
:10125800413084F8423084F8433084F8443084F8CC
:10126800453084F83D30002010BD80F83C30FFF751
:10127800A7F8DBE70120704740B310B5044690F8A3
:101288003D30F3B1022384F83D30214651F8040B78
:10129800FFF75AFF012384F8463084F83E3084F87B
:1012A8003F3084F8403084F8413084F8423084F884
:1012B800433084F8443084F8453084F83D300020C9
:1012C80010BD80F83C30FFF791F8DBE7012070474C
:1012D80030B4036A026A22F010020262446882692A
:1012E80022F4E6420D6842EA052223F020038D68C5
:1012F80043EA0513114DA84203D005F58065A842BD
:1013080006D123F08003CD6843EA051323F0400398
:101318000A4DA84203D005F58065A84207D124F4F8
:1013280040644D6944EA85048D6944EA8504446053
:1013380082614A688263036230BC704700000140E2
:1013480038B590F83C30012B66D004460D46012391
:1013580080F83C300C2A5AD8DFE802F0075959596E
:101368001B5959593059595944000068FFF724FE50
:101378002268936943F0080393612268936923F014
:10138800040393612268936929690B4393610020E0
:101398003EE00068FFF79CFF2268936943F400630E
:1013A80093612268936923F4806393612268936947
:1013B800296943EA01239361002029E00068FFF7C7
:1013C80033FE2268D36943F00803D3612268D369E6
:1013D80023F00403D3612268D36929690B43D361DD
:1013E800002015E00068FFF757FE2268D36943F430
:1013F8000063D3612268D36923F48063D3612268D0
:10140800D369296943EA0123D361002000E0012060
:10141800002384F83C3038BD0220FCE710B484680F
:1014280024F47F4C42EA03220A4342EA0C02826017
:101438005DF8044B704790F83C30012B78D010B51C
:101448000446012380F83C30022380F83D300268CE
:10145800936823F47F4323F0770393600B68602B32
:101468004CD023D8402B54D011D8202B03D00AD8E5
:101478000BB1102B05D119462068FFF75CFE002040
:1014880028E0012026E0302BF5D0012022E0502B67
:101498000AD1CA6849680068FFF726FE502120680B
:1014A800FFF749FE002015E0012013E0B3F5805F47
:1014B8003AD0B3F5005F14D0702B37D1CB684A68A7
:1014C80089680068FFF7AAFF2268936843F07703EA
:1014D80093600020012384F83D30002384F83C30D9
:1014E80010BDCB684A6889680068FFF797FF2268D3
:1014F800936843F4804393600020EBE7CA68496827
:101508000068FFF704FE60212068FFF714FE002042
:10151800E0E7CA6849680068FFF7E6FD40212068EF
:10152800FFF709FE0020D5E70020D3E70120D1E727
:101538000220704790F83C20012A3DD010B40346A1
:10154800012280F83C20022280F83D200268506881
:10155800946820F0700C086840EA0C0050601A6823
:10156800164882421AD0B2F1804F17D0A0F57C40BD
:10157800824213D000F5806082420FD000F580606F
:1015880082420BD000F57840824207D000F57050B7
:10159800824203D0A0F59430824204D124F0800422
:1015A800496821439160012283F83D20002083F897
:1015B8003C005DF8044B7047022070470000014072
:1015C800DFF834D0FEF7F2FE0C480D490D4A00232F
:1015D80002E0D458C4500433C4188C42F9D30A4AE0
:1015E8000A4C002301E013600432A242FBD300F04E
:1015F80019F8FEF797FE704700000220000000204F
:101608000C000020681900080C000020BC00002015
:10161800FEE702440346934200D1704703F8011BDA
:10162800F9E7000070B50D4D0D4C641BA4100026A1
:10163800A64209D10B4D0C4C00F076F9641BA4109E
:101648000026A64205D170BD55F8043B98470136DF
:10165800EEE755F8043B98470136F2E760190008B1
:101668006019000860190008641900082DE9F0479E
:10167800089D0E4604460F46002B4AD194468C45D9
:10168800B2FA82F260D942B1C2F12003974020FA3F
:1016980003F30CFA02FC1F4394404FEA1C4E1FFA56
:1016A8008CF6B7FBFEF1230C0EFB117743EA0743D8
:1016B80001FB06F098420AD91CEB030301F1FF373E
:1016C80080F01581984240F21281023963441B1A56
:1016D800A4B2B3FBFEF00EFB103344EA034400FB54
:1016E80006F6A6420AD91CEB040400F1FF3380F089
:1016F8000081A64240F2FD806444023840EA01407D
:10170800A41B00211DB1D4400023C5E90043BDE856
:10171800F0878B4205D90DB1C5E9000100210846C3
:10172800F5E7B3FA83F1002946D1B34202D38242E6
:1017380000F2F580841A66EB030201201746002D9B
:10174800E5D0C5E90047E2E7002A40F09380A1EB25
:101758000C034FEA1C471FFA8CFE0121B3FBF7F676
:1017680007FB1630230C43EA00430EFB06F09842B1
:1017780008D91CEB030306F1FF3802D2984200F2A5
:10178800D08046461B1AA4B2B3FBF7F007FB103310
:1017980044EA03440EFB00FEA64508D91CEB0404EA
:1017A80000F1FF3302D2A64500F2B6801846A4EB3A
:1017B8000E0440EA0640A5E7C1F120078B4022FA53
:1017C80007FC4CEA030C06FA01FE20FA07F426FA95
:1017D80007F344EA0E0400FA01F84FEA1C404FEA06
:1017E8001449B3FBF0FE1FFA8CF600FB1E3349EADE
:1017F80003430EFB06F9994502FA01F20BD91CEBDB
:1018080003030EF1FF3A80F08580994540F282800B
:10181800AEF1020E6344A3EB0909A4B2B9FBF0F3DD
:1018280000FB139944EA094403FB06F6A64208D9CB
:101838001CEB040403F1FF3068D2A64266D9023BD0
:10184800644443EA0E40A41BA0FB02E6B44273467C
:10185800B14652D34FD05DB1B8EB030264EB090433
:1018680004FA07F722FA01F31F43CC40C5E90074D4
:1018780000214CE7C2F1200120FA01F30CFA02FC26
:1018880026FA01F1964033434FEA1C471FFA8CFEB3
:10189800B1FBF7F007FB1016190C41EA064100FBF3
:1018A8000EF68E4204FA02F408D91CEB010100F18D
:1018B800FF382DD28E422BD902386144891B9BB246
:1018C800B1FBF7F607FB161143EA014306FB0EF1DD
:1018D800994208D91CEB030306F1FF3814D2994248
:1018E80012D9023E63445B1A46EA004136E739469C
:1018F800EDE6184602E7F045ADD2BEEB020366EB13
:101908000C060138B146A6E74646ECE7034698E7D9
:101918004046D3E7D6467EE76444023847E70846A0
:101928000DE7023E63442DE7F8B500BFF8BC08BCDC
:101938009E467047F8B500BFF8BC08BC9E46704785
:101948000000000000000000010203040607080967
:081958001CFDFF7F01000000EF
:04196000E101000899
:04196400BD010008B9
:0C1968000024F40001000000100000004A
:04000005080015C911
:00000001FF
