:020000040800F2
:100000000028002055110008C5020008C70200089A
:10001000C9020008CB020008CD0200080000000061
:10002000000000000000000000000000CF020008F7
:10003000D102000800000000D3020008D502000829
:100040009D1100089D1100089D1100089D110008D8
:100050009D1100089D1100089D1100089D110008C8
:100060009D1100089D1100089D1100089D110008B8
:100070009D1100089D1100089D1100089D110008A8
:100080009D1100089D1100089D1100089D11000898
:100090009D1100089D1100089D1100089D11000888
:1000A0009D1100089D1100089D1100089D11000878
:1000B0009D1100089D110008000000009D1100081E
:1000C0009D11000800000000000000009D110008C4
:1000D000000000009D1100089D11000800000000B4
:1000E0009D1100089D1100089D11000800000000EE
:1000F0000000000000000000000000000000000000
:0C01000000000000000000005FF808F1A3
:10010C000348044B834202D0034B03B1184770479A
:10011C000C0000200C000020000000000548064BDD
:10012C001B1AD90F01EBA301491002D0034B03B1E9
:10013C00184770470C0000200C0000200000000045
:10014C0010B5064C237843B9FFF7DAFF044B13B113
:10015C000448AFF300800123237010BD0C00002075
:10016C0000000000F811000808B5054B1BB105494B
:10017C000548AFF30080BDE80840FFF7CFBF00BFD4
:10018C000000000010000020F811000882B00A4B9B
:10019C009A6942F020029A619A6902F02002009258
:1001AC00009A9A6942F004029A619B6903F0040375
:1001BC000193019B02B070470010024072B6FEE73B
:1001CC0000B58BB00023089309930193029303931A
:1001DC00049305930693079316484FF080420260F0
:1001EC0007224260836042F20F72C2600361836136
:1001FC0000F078F9C0B900230893099308A90D48B9
:10020C0000F0B2FA90B9602301930022029203929B
:10021C00059201A9074800F0BFF948B9054800F05C
:10022C008DF80BB05DF804FBFFF7C8FFFFF7C6FFB6
:10023C00FFF7C4FF2800002000B591B02822002150
:10024C0006A800F0A6FF00230193029303930493E6
:10025C0005930223069301230A9310230B9306A8FC
:10026C0000F014FB68B90F23019300210291039154
:10027C000491059101A800F03BFD20B911B05DF887
:10028C0004FBFFF79BFFFFF799FF000008B500F098
:10029C00C3FAFFF7D1FFFFF779FFFFF791FF0021BA
:1002AC00044800F0F7F94FF080434FF47A725A6328
:1002BC00F9E700BF28000020FEE7FEE7FEE7FEE7B7
:1002CC00FEE770477047704708B500F0B7FA08BDF5
:1002DC0082B00E4B9A6942F001029A619A6902F05F
:1002EC0001020092009ADA6942F08052DA61DB690D
:1002FC0003F080530193019B054A536823F0E0639C
:10030C0043F00073536002B0704700BF001002400E
:10031C00000001400368B3F1804F00D0704782B0F9
:10032C0003F50433DA6942F00102DA61DB6903F0A8
:10033C0001030193019B02B07047000000B587B028
:10034C00002302930393049305930368B3F1804F46
:10035C0002D007B05DF804FB03F504339A6942F050
:10036C0004029A619B6903F004030193019B01232E
:10037C00029302230393059302A9024800F06EFD39
:10038C00E7E700BF0008014030B4026A036A23F0BB
:10039C00010303624568836923F073030C681C43F3
:1003AC0022F002028B6813430B4A904206D0456040
:1003BC0084614A684263036230BC704723F00803CF
:1003CC00CA681A4322F0040325F440754A692A438B
:1003DC008D691543EBE700BF002C014030B4036A74
:1003EC00026A22F4807202624468C26922F07302CB
:1003FC000D68154323F400738A6843EA02230D4AFF
:10040C00904206D04460C5614A68C263036230BC46
:10041C00704723F40063CA6843EA022323F4806321
:10042C0024F440544A6944EA02148A6944EA0214E6
:10043C00E8E700BF002C014030B4036A026A22F4E2
:10044C00805202624468C26922F4E6420D6842EAB4
:10045C00052223F400538D6843EA0533074DA84267
:10046C0006D04460C2614A680264036230BC7047C3
:10047C0024F480444D6944EA8514F2E7002C0140D1
:10048C000368174A904206D0B0F1804F03D0A2F512
:10049C009432904203D123F070034A681343104AFC
:1004AC00904206D0B0F1804F03D0A2F59432904226
:1004BC0003D123F44073CA68134323F080034A69C1
:1004CC00134303608B68C3620B688362044B9842CE
:1004DC0002D00123436170470B690363F9E700BF46
:1004EC00002C014040B310B5044690F83D30F3B1F8
:1004FC00022384F83D30214651F8040BFFF7C0FF6E
:10050C00012384F8463084F83E3084F83F3084F878
:10051C00403084F8413084F8423084F8433084F819
:10052C00443084F8453084F83D30002010BD80F80C
:10053C003C30FFF7EFFEDBE70120704730B4036A75
:10054C00026A22F0100202624468826922F4E642D6
:10055C000D6842EA052223F020038D6843EA051357
:10056C000C4DA84206D0446082614A6882630362E3
:10057C0030BC704723F08003CD6843EA051323F0A9
:10058C00400324F440644D6944EA85048D6944EACF
:10059C008504E8E7002C014038B590F83C30012B7D
:1005AC0066D004460D46012380F83C300C2A5AD8FC
:1005BC00DFE802F0075959591B5959593059595903
:1005CC0044000068FFF7E0FE2268936943F00803DB
:1005DC0093612268936923F0040393612268936901
:1005EC0029690B43936100203EE00068FFF7A6FFEA
:1005FC002268936943F4006393612268936923F43E
:10060C008063936122689369296943EA01239361AA
:10061C00002029E00068FFF7E1FE2268D36943F06F
:10062C000803D3612268D36923F00403D3612268E1
:10063C00D36929690B43D361002015E00068FFF7EB
:10064C00FBFE2268D36943F40063D3612268D3694B
:10065C0023F48063D3612268D369296943EA0123B7
:10066C00D361002000E00120002384F83C3038BD29
:10067C000220FCE701F01F014FF0010C0CFA01FC09
:10068C00036A23EA0C030362036A8A40134303627E
:10069C007047000010B50446084631BB94F83E3054
:1006AC00DBB2013B18BF0123002B57D1002835D1F9
:1006BC00022384F83E30012201462068FFF7DAFF5E
:1006CC002368284A934239D02368264A93423AD069
:1006DC00B3F1804F37D0A2F59432934233D01A68DD
:1006EC0042F001021A60002039E0042908D00829E0
:1006FC000DD094F84130DBB2013B18BF0123D3E796
:10070C0094F83F30DBB2013B18BF0123CCE794F8DF
:10071C004030DBB2013B18BF0123C5E7042805D0EC
:10072C00082807D0022384F84130C4E7022384F858
:10073C003F30C0E7022384F84030BCE75A6C42F4E7
:10074C0000425A64C0E79A6802F00702062A07D0F2
:10075C001A6842F001021A60002000E0012010BD6E
:10076C000020FCE7002C014090F83C20012A28D006
:10077C0010B40346012280F83C20022280F83D2070
:10078C0002685068946820F0700C086840EA0C000D
:10079C0050601A680C48824206D0B2F1804F03D0E8
:1007AC00A0F59430824204D124F08004496821439E
:1007BC009160012283F83D20002083F83C0010BC9E
:1007CC0070470220704700BF002C014010B5044652
:1007DC000E4B1A784FF47A73B3FBF2F30C4A106891
:1007EC00B0FBF3F000F09AFC68B90F2C01D9012092
:1007FC000AE0002221464FF0FF3000F07FFC054B51
:10080C001C60002000E0012010BD00BF0000002093
:10081C00080000200400002008B5074A136843F0C4
:10082C0010031360032000F057FC0F20FFF7CEFFDE
:10083C00FFF74EFD002008BD00200240034A11685E
:10084C00034B1B780B441360704700BF70000020F3
:10085C0000000020014B1868704700BF700000209A
:10086C0082B0084B1B68084AA2FB03235B0A00FBFF
:10087C0003F3019300BF019B5A1E0192002BF9D187
:10088C0002B0704708000020D34D6210002800F021
:10089C00F18170B582B00446036813F0010F2CD0BF
:1008AC00994B5B6803F00C03042B1DD0964B5B68D3
:1008BC0003F00C03082B12D06368B3F5803F41D0D2
:1008CC00002B55D103F1804303F504331A6822F44D
:1008DC0080321A601A6822F480221A6037E08A4B40
:1008EC005B6813F4803FE7D0874B1B6813F4003F21
:1008FC0003D06368002B00F0BF81236813F0020F54
:10090C0075D0814B5B6813F00C0F5FD07E4B5B682E
:10091C0003F00C03082B54D02369002B00F08A80C1
:10092C007A4B01221A60FFF795FF0546764B1B6840
:10093C0013F0020F75D1FFF78DFF401B0228F5D97C
:10094C0003209EE1704A136843F48033136063689C
:10095C0043B3FFF77FFF05466B4B1B6813F4003F57
:10096C00CBD1FFF777FF401B6428F5D9032088E132
:10097C00B3F5A02F09D0644B1A6822F480321A60A8
:10098C001A6822F480221A60E1E703F18043A3F590
:10099C003C331A6842F480221A601A6842F480329E
:1009AC001A60D4E7FFF756FF0546574B1B6813F444
:1009BC00003FA2D0FFF74EFF401B6428F5D903205F
:1009CC005FE1514B5B6813F4803FA5D14E4B1B6824
:1009DC0013F0020F03D02369012B40F04F814A4AD8
:1009EC00136823F0F803616943EAC10313602368B9
:1009FC0013F0080F33D0A369002B5CD0434B0122BA
:100A0C00C3F88024FFF726FF05463F4B5B6A13F0C3
:100A1C00020F21D1FFF71EFF401B0228F5D903203E
:100A2C002FE1394A136823F0F803616943EAC103E3
:100A3C001360DCE7354B00221A60FFF70BFF05460D
:100A4C00314B1B6813F0020FD1D0FFF703FF401B93
:100A5C000228F5D9032014E10120FFF701FF2368D8
:100A6C0013F0040F00F09680274BDB6913F0805FC6
:100A7C0034D1254BDA6942F08052DA61DB6903F03C
:100A8C0080530193019B0125214B1B6813F4807F3C
:100A9C0026D0E368012B3DD0002B53D103F18043CA
:100AAC0003F504331A6A22F001021A621A6A22F060
:100ABC0004021A6233E0154B0022C3F88024FFF7BE
:100ACC00C9FE0546104B5B6A13F0020FC7D0FFF747
:100ADC00C1FE401B0228F5D90320D2E00025D3E744
:100AEC000B4A136843F480731360FFF7B3FE06469A
:100AFC00074B1B6813F4807FCBD1FFF7ABFE801B39
:100B0C006428F5D90320BCE00010024000004242EA
:100B1C00007000405F4A136A43F001031362E368FC
:100B2C0033B3FFF797FE06465A4B1B6A13F0020FBE
:100B3C002FD1FFF78FFE801B41F288339842F3D9F7
:100B4C0003209EE0052B09D0524B1A6A22F00102B9
:100B5C001A621A6A22F004021A62E0E74D4B1A6A12
:100B6C0042F004021A621A6A42F001021A62D6E7D3
:100B7C00FFF770FE0646474B1B6A13F0020F08D0B6
:100B8C00FFF768FE801B41F288339842F3D90320AB
:100B9C0077E0E5B9E369002B72D03E4A526802F067
:100BAC000C02082A56D0022B17D03B4B00221A6697
:100BBC00FFF750FE0446374B1B6813F0007F47D0FD
:100BCC00FFF748FE001B0228F5D9032059E0314AF3
:100BDC00D36923F08053D361DCE72F4B00221A66D4
:100BEC00FFF738FE05462B4B1B6813F0007F06D031
:100BFC00FFF730FE401B0228F5D9032041E0236AA1
:100C0C00B3F5803F1AD023494B6823F47413226A3E
:100C1C00606A024313434B601F4B01221A66FFF7B5
:100C2C0019FE04461B4B1B6813F0007F0ED1FFF717
:100C3C0011FE001B0228F5D9032022E0154A536847
:100C4C0023F40033A1680B435360DCE7002018E069
:100C5C00002016E0012B16D00E4B5B6803F480319C
:100C6C00226A914211D103F47013626A93420ED13D
:100C7C00002006E001207047012002E0012000E086
:100C8C00002002B070BD0120FBE70120F9E7012034
:100C9C00F7E700BF00100240000042420F4B5B68B8
:100CAC0003F00C02082A01D00D487047C3F38342AD
:100CBC000C49885C13F4803F0BD0084B5B68C3F382
:100CCC004043094AD35C064A02FB00F0B0FBF3F048
:100CDC007047064B03FB00F0704700BF001002404A
:100CEC0000127A00141200081012000800093D00CE
:100CFC00002800F0A08070B50D460446524B1B68CE
:100D0C0003F007038B420BD24F4A136823F00703FF
:100D1C000B431360136803F007038B4240F08D8084
:100D2C00236813F0020F17D013F0040F04D0474AB6
:100D3C00536843F4E0635360236813F0080F04D046
:100D4C00424A536843F460535360404A536823F05B
:100D5C00F003A1680B435360236813F0010F31D0EB
:100D6C006368012B20D0022B25D0384A126812F070
:100D7C00020F64D035494A6822F0030213434B60DA
:100D8C00FFF768FD0646314B5B6803F00C036268A5
:100D9C00B3EB820F16D0FFF75DFD801B41F2883359
:100DAC009842F0D9032045E0284A126812F4003F1B
:100DBC00E0D101203EE0254A126812F0007FD9D123
:100DCC00012037E0204B1B6803F00703AB420AD924
:100DDC001D4A136823F007032B431360136803F0B9
:100DEC000703AB422DD1236813F0040F06D0174A2A
:100DFC00536823F4E063E1680B435360236813F0FA
:100E0C00080F07D0114A536823F46053216943EA51
:100E1C00C1035360FFF742FF0C4B5B68C3F3031332
:100E2C000B4AD35CD8400B4B18600B4B1868FFF780
:100E3C00CDFC002070BD012070470120FAE7012095
:100E4C00F8E70120F6E700BF002002400010024046
:100E5C0024120008080000200400002070B582B0A5
:100E6C000024A44687E07C4DAB4214D00CD8A5F5E9
:100E7C008015AB420FD005F57025AB420BD0A5F514
:100E8C008015AB4212D106E0744DAB4203D005F590
:100E9C008035AB420AD18B68002B00F0B580012B5A
:100EAC0000F0AD804261082400E0CC68BEF1FF0F79
:100EBC0000F2AC8006464FEA8C0233680F25954051
:100ECC0023EA050304FA02F2134333604B6813F070
:100EDC00805F4ED0624B9A6942F001029A619B6925
:100EEC0003F001030193019B4FEA9C02951C5D4B9F
:100EFC0053F825600CF00305AD000F23AB4026EA38
:100F0C000306594B984200F0888003F580639842A1
:100F1C0000F0858003F5806398427CD00323AB40BE
:100F2C00334302324F4D45F822304B6813F4801F87
:100F3C0077D04E4A936843EA0E0393604B6813F4E0
:100F4C00001F74D0494AD36843EA0E03D3604B6840
:100F5C0013F4003F71D0454A536843EA0E035360C3
:100F6C004B6813F4803F6ED0404A136843EA0E037B
:100F7C0013600CF1010C0B6833FA0CF269D00122EE
:100F8C0002FA0CF203EA020E32EA0303F1D14B68C7
:100F9C00122B3FF668AF122B88D801A555F823F019
:100FAC00A30E0008B70E0008FF0F00081110000870
:100FBC00B90E0008B90E0008B90E0008B90E0008E9
:100FCC00B90E0008B90E0008B90E0008B90E0008D9
:100FDC00B90E0008B90E0008B90E0008B90E0008C9
:100FEC00B90E0008F90F000805100008CC6804348D
:100FFC005CE7CC68083459E7CC680C3456E70261DE
:10100C00082453E7002451E704244FE7061DACF1F4
:10101C000802920051E7022381E700237FE70123B6
:10102C007DE7124A936823EA0E03936086E70F4A22
:10103C00D36823EA0E03D36089E70C4A536823EA8A
:10104C000E0353608CE7094A136823EA0E031360FE
:10105C008FE702B070BD00BF0000221000003110FD
:10106C000010024000000140000801400004014053
:10107C00002808DB0901C9B200F1604000F56140AD
:10108C0080F80013704700F00F000901C9B2014B42
:10109C001954704714ED00E000B500F00700C0F1E2
:1010AC00070CBCF1040F28BF4FF0040C031D062BDA
:1010BC000FD9C31E4FF0FF3E0EFA0CF021EA0001CF
:1010CC0099400EFA03FE22EA0E0241EA02005DF894
:1010DC0004FB0023EEE70000074AD36823F4E06327
:1010EC001B041B0C000200F4E060034343F0BF63DD
:1010FC0043F40033D360704700ED00E010B50446B4
:10110C00054BD868C0F30220FFF7C6FF0146204606
:10111C00FFF7AEFF10BD00BF00ED00E00138B0F1ED
:10112C00807F0BD24FF0E0235861054AF02182F802
:10113C0023100020986107221A6170470120704724
:10114C0000ED00E070470000FFF7FCFF0B480C4976
:10115C000C4A002302E0D458C4500433C4188C4207
:10116C00F9D3094A094C002301E013600432A2426E
:10117C00FBD300F017F8FFF789F870470000002048
:10118C000C0000203C1200080C0000207400002011
:10119C00FEE703460244934200D1704703F8011B5B
:1011AC00F9E7000070B500260C4D0D4C641BA41023
:1011BC00A64209D100F01AF800260A4D0A4C641B0D
:1011CC00A410A64205D170BD55F8043B98470136D2
:1011DC00EEE755F8043B98470136F2E73412000865
:1011EC00341200083412000838120008F8B500BF99
:1011FC00F8BC08BC9E467047F8B500BFF8BC08BCEC
:04120C009E46704743
:101210000102000002030405060708090A0B0C0D71
:101220000E0F101000000000000000000102030477
:04123000060708099C
:041234007501000838
:041238004D0100085C
:0C123C0001000000100000000024F4007D
:040000050800115589
:00000001FF
