:020000040800F2
:100000000000022099210008590D00085B0D00082E
:100010005D0D00085F0D0008610D00080000000084
:10002000000000000000000000000000630D000858
:10003000650D000800000000670D0008690D00084C
:10004000E9210008E9210008E9210008E921000868
:10005000E9210008E9210008E9210008E921000858
:10006000E9210008E9210008E9210008E921000848
:10007000E9210008E9210008E9210008E921000838
:10008000E9210008E9210008E9210008E921000828
:10009000E9210008E9210008E9210008E921000818
:1000A000E9210008E9210008E9210008E921000808
:1000B000E9210008E9210008E9210008E9210008F8
:1000C000E9210008E9210008E9210008E9210008E8
:1000D000E9210008E9210008E9210008E9210008D8
:1000E000E9210008E9210008E9210008E9210008C8
:1000F000E9210008E9210008E9210008E9210008B8
:10010000E9210008E9210008E9210008E9210008A7
:10011000E9210008E9210008E9210008E921000897
:10012000E9210008E9210008E9210008E921000887
:10013000E9210008E9210008E9210008E921000877
:10014000E9210008E9210008E9210008E921000867
:10015000E9210008E9210008E9210008E921000857
:10016000E9210008E9210008E9210008E921000847
:10017000E9210008E9210008E92100080000000049
:08018000E9210008E921000853
:1001900001F0FF01102A2BDB10F0070F08D010F838
:1001A000013B013A8B422DD010F0070F42B3F6D13C
:1001B000F0B441EA012141EA014122F007047FF055
:1001C00000070023F0E80256083C85EA010586EAAC
:1001D000010685FA47F5A3FA87F586FA47F6A5FAE8
:1001E00087F68EB9EED1F0BC01F0FF0102F00702F4
:1001F00032B110F8013B013A83EA010313B1F8D19F
:100200000020704701387047002D06BF354603387F
:10021000073815F0010F07D1013015F4807F02BFB8
:10022000013015F4C03F0130F0BC0138704700BF09
:10023000034613F8012B002AFBD1181A0138704726
:1002400081F0004102E000BF83F0004330B54FEA87
:1002500041044FEA430594EA050F08BF90EA020FF4
:100260001FBF54EA000C55EA020C7FEA645C7FEA87
:10027000655C00F0E2804FEA5454D4EB5555B8BFAA
:100280006D420CDD2C4480EA020281EA030382EA1B
:10029000000083EA010180EA020281EA0303362DAD
:1002A00088BF30BD11F0004F4FEA01314FF4801C80
:1002B0004CEA113102D0404261EB410113F0004F92
:1002C0004FEA03334CEA133302D0524263EB430349
:1002D00094EA050F00F0A780A4F10104D5F1200EE7
:1002E0000DDB02FA0EFC22FA05F2801841F1000142
:1002F00003FA0EF2801843FA05F359410EE0A5F116
:1003000020050EF1200E012A03FA0EFC28BF4CF046
:10031000020C43FA05F3C01851EBE37101F00045FC
:1003200007D54FF0000EDCF1000C7EEB00006EEB09
:100330000101B1F5801F1BD3B1F5001F0CD3490893
:100340005FEA30004FEA3C0C04F101044FEA4452EA
:1003500012F5800F80F09A80BCF1004F08BF5FEA71
:10036000500C50F1000041EB045141EA050130BD51
:100370005FEA4C0C404141EB0101013C28BFB1F563
:10038000801FE9D291F0000F04BF01460020B1FAAE
:1003900081F308BF2033A3F10B03B3F120020CDA81
:1003A0000C3208DD02F1140CC2F10C0201FA0CF05F
:1003B00021FA02F10CE002F11402D8BFC2F1200CC4
:1003C00001FA02F120FA0CFCDCBF41EA0C0190407A
:1003D000E41AA2BF01EB0451294330BD6FEA0404C3
:1003E0001F3C1CDA0C340EDC04F11404C4F12002AE
:1003F00020FA04F001FA02F340EA030021FA04F3C0
:1004000045EA030130BDC4F10C04C4F1200220FA16
:1004100002F001FA04F340EA0300294630BD21FA54
:1004200004F0294630BD94F0000F83F4801306BF1A
:1004300081F480110134013D4EE77FEA645C18BF0E
:100440007FEA655C29D094EA050F08BF90EA020FA5
:1004500005D054EA000C04BF1946104630BD91EA9D
:10046000030F1EBF0021002030BD5FEA545C05D1A0
:100470004000494128BF41F0004130BD14F58004DF
:100480003CBF01F5801130BD01F0004545F0FE4153
:1004900041F470014FF0000030BD7FEA645C1ABF88
:1004A000194610467FEA655C1CBF0B46024650EABF
:1004B000013406BF52EA033591EA030F41F40021EB
:1004C00030BD00BF90F0000F04BF0021704730B571
:1004D0004FF4806404F132044FF000054FF0000146
:1004E00050E700BF90F0000F04BF0021704730B507
:1004F0004FF4806404F1320410F0004548BF4042DC
:100500004FF000013EE700BF42004FEAE2014FEA30
:1005100031014FEA02701FBF12F07F4393F07F4F0B
:1005200081F06051704732F07F4208BF704793F00E
:100530007F4F04BF41F40021704730B54FF4607421
:1005400001F0004521F000411CE700BF50EA010224
:1005500008BF704730B54FF000050AE050EA0102CD
:1005600008BF704730B511F0004502D5404261EB3D
:1005700041014FF4806404F132045FEA915C3FF47E
:10058000D8AE4FF003025FEADC0C18BF03325FEA1B
:10059000DC0C18BF033202EBDC02C2F1200300FACC
:1005A00003FC20FA02F001FA03FE40EA0E0021FAF1
:1005B00002F11444BDE600BF70B54FF0FF0C4CF4DF
:1005C000E06C1CEA11541DBF1CEA135594EA0C0F91
:1005D00095EA0C0F00F0DEF82C4481EA030621EACC
:1005E0004C5123EA4C5350EA013518BF52EA033507
:1005F00041F4801143F4801338D0A0FB02CE4FF0B9
:100600000005E1FB02E506F00042E0FB03E54FF0E8
:100610000006E1FB03569CF0000F18BF4EF0010EE0
:10062000A4F1FF04B6F5007F64F5407404D25FEADC
:100630004E0E6D4146EB060642EAC62141EA55518F
:100640004FEAC52040EA5E504FEACE2EB4F1FD0CD1
:1006500088BFBCF5E06F1ED8BEF1004F08BF5FEA4F
:10066000500E50F1000041EB045170BD06F0004601
:1006700046EA010140EA020081EA0301B4EB5C04AE
:10068000C2BFD4EB0C0541EA045170BD41F48011A6
:100690004FF0000E013C00F3AB8014F1360FDEBFCB
:1006A000002001F0004170BDC4F10004203C35DAA7
:1006B0000C341BDC04F11404C4F1200500FA05F32A
:1006C00020FA04F001FA05F240EA020001F00042CB
:1006D00021F0004110EBD37021FA04F642EB060141
:1006E0005EEA430E08BF20EAD37070BDC4F10C046B
:1006F000C4F1200500FA04F320FA05F001FA04F22F
:1007000040EA020001F0004110EBD37041F100011A
:100710005EEA430E08BF20EAD37070BDC4F1200525
:1007200000FA05F24EEA020E20FA04F301FA05F28D
:1007300043EA020321FA04F001F0004121FA04F235
:1007400020EA020000EBD3705EEA430E08BF20EA05
:10075000D37070BD94F0000F0FD101F0004640003F
:1007600041EB010111F4801F08BF013CF7D041EAC1
:10077000060195F0000F18BF704703F000465200C5
:1007800043EB030313F4801F08BF013DF7D043EA96
:100790000603704794EA0C0F0CEA135518BF95EA4C
:1007A0000C0F0CD050EA410618BF52EA4306D1D1D3
:1007B00081EA030101F000414FF0000070BD50EAF2
:1007C000410606BF1046194652EA430619D094EA7C
:1007D0000C0F02D150EA013613D195EA0C0F05D166
:1007E00052EA03361CBF104619460AD181EA0301BA
:1007F00001F0004141F0FE4141F470014FF0000072
:1008000070BD41F0FE4141F4780170BD70B54FF00C
:10081000FF0C4CF4E06C1CEA11541DBF1CEA13558C
:1008200094EA0C0F95EA0C0F00F0A7F8A4EB05046E
:1008300081EA030E52EA03354FEA013100F0888065
:100840004FEA03334FF0805545EA131343EA12632E
:100850004FEA022245EA111545EA10654FEA0026E3
:100860000EF000419D4208BF964244F1FD0404F59C
:10087000407402D25B084FEA3202B61A65EB0305F8
:100880005B084FEA32024FF480104FF4002CB6EBB5
:10089000020E75EB030E22BFB61A754640EA0C0035
:1008A0005B084FEA3202B6EB020E75EB030E22BF75
:1008B000B61A754640EA5C005B084FEA3202B6EBB6
:1008C000020E75EB030E22BFB61A754640EA9C0075
:1008D0005B084FEA3202B6EB020E75EB030E22BF45
:1008E000B61A754640EADC0055EA060E18D04FEA03
:1008F000051545EA16754FEA06164FEAC30343EAA3
:1009000052734FEAC2025FEA1C1CC0D111F4801F6F
:100910000BD141EA00014FF000004FF0004CB6E768
:1009200011F4801F04BF01430020B4F1FD0C88BF07
:10093000BCF5E06F3FF6AFAEB5EB030C04BFB6EB12
:10094000020C5FEA500C50F1000041EB045170BD05
:100950000EF0004E4EEA113114EB5C04C2BFD4EB32
:100960000C0541EA045170BD41F480114FF0000EB6
:10097000013C90E645EA060E8DE60CEA135594EA32
:100980000C0F08BF95EA0C0F3FF43BAF94EA0C0F35
:100990000AD150EA01347FF434AF95EA0C0F7FF4AA
:1009A00025AF104619462CE795EA0C0F06D152EAFE
:1009B00003353FF4FDAE1046194622E750EA4106E2
:1009C00018BF52EA43067FF4C5AE50EA41047FF4F3
:1009D0000DAF52EA43057FF4EBAE12E74FF0FF3C58
:1009E00006E000BF4FF0010C02E000BF4FF0010C29
:1009F0004DF804CD4FEA410C7FEA6C5C4FEA430CA2
:100A000018BF7FEA6C5C1BD001B050EA410C0CBFF0
:100A100052EA430C91EA030F02BF90EA020F002052
:100A2000704710F1000F91EA030F58BF994208BFB9
:100A300090422CBFD8176FEAE37040F00100704776
:100A40004FEA410C7FEA6C5C02D150EA013C07D1CD
:100A50004FEA430C7FEA6C5CD6D152EA033CD3D018
:100A60005DF8040B704700BF8446104662468C4612
:100A70001946634600E000BF01B5FFF7B7FF002845
:100A800048BF10F1000F01BD4DF808EDFFF7F4FF6E
:100A90000CBF012000205DF808FB00BF4DF808EDF9
:100AA000FFF7EAFF34BF012000205DF808FB00BF1C
:100AB0004DF808EDFFF7E0FF94BF012000205DF83E
:100AC00008FB00BF4DF808EDFFF7CEFF94BF0120F3
:100AD00000205DF808FB00BF4DF808EDFFF7C4FFEC
:100AE00034BF012000205DF808FB00BF4FEA410C35
:100AF0007FEA6C5C02D150EA013C0AD14FEA430C18
:100B00007FEA6C5C02D152EA033C02D14FF0000054
:100B100070474FF0010070474FEA410212F5001292
:100B200015D211D56FF47873B3EB625212D94FEA34
:100B3000C12343F0004343EA505311F0004F23FA1E
:100B400002F018BF404270474FF00000704750EA73
:100B5000013005D111F0004008BF6FF00040704730
:100B60004FF00000704700BF53B94AB9002908BFD1
:100B700000281CBF4FF0FF314FF0FF3000F00CB8E1
:100B8000ADF1080C6DE904CE03F0AEFFDDF804E032
:100B9000DDE9022304B07047704700BF0348044BEF
:100BA000834202D0034B03B118477047D4010020A1
:100BB000D4010020000000000548064B1B1AD90F85
:100BC00001EBA301491002D0034B03B11847704752
:100BD000D4010020D40100200000000010B5064C14
:100BE000237843B9FFF7DAFF044B13B10448AFF39E
:100BF00000800123237010BDD401002000000000FC
:100C0000A44D000808B5054B1BB105490548AFF3D5
:100C10000080BDE80840FFF7CFBF00BF0000000024
:100C2000D8010020A44D00084FF08043586A704757
:100C300072B6FEE700B595B03022002108A802F098
:100C400040F80023039304930593069307930193BD
:100C5000214A116C41F080511164126C02F08052F3
:100C60000192019A02931D4B1A6842F480421A6065
:100C70001B6803F480430293029B012308934FF403
:100C80008033099302230E934FF480020F920822BF
:100C900010924FF4A872119212930723139308A88D
:100CA00000F0F2FB98B90F2303930223049300236F
:100CB00005934FF4A05306934FF4805307930521F7
:100CC00003A800F04BFE20B915B05DF804FBFFF758
:100CD000AFFFFFF7ADFF00BF0038024000700040DB
:100CE00008B501F077F8FFF7A5FF01F021F901F051
:100CF00069F901F00FFA0C21114800F097FA0C2164
:100D0000104800F015FB104C01224FF48051204692
:100D100000F0CAFF00224FF40041204600F0C4FF5B
:100D20000A4B41F288325A63FFF77EFF084B186086
:100D3000FFF77AFF0146074801F06EFFE3E700BFC7
:100D4000FC01002044020020001002400008004086
:100D5000F0010020C04D0008FEE7FEE7FEE7FEE7D9
:100D6000FEE770477047704708B501F04DF808BDC1
:100D700000B583B0002100910C4B5A6C42F48042C4
:100D80005A645A6C02F480420092009A01911A6CE3
:100D900042F080521A641B6C03F080530193019B54
:100DA000072000F0BBFF03B05DF804FB00380240F1
:100DB00030B4036A026A22F0010202624268846966
:100DC00024F0730C0C6844EA0C0423F0020C8B68CA
:100DD00043EA0C03114DA84203D005F58065A842F3
:100DE00005D123F00803CD682B4323F004030B4DFA
:100DF000A84203D005F58065A84207D122F44072CD
:100E00004D6945EA020C8A6942EA0C02426084613B
:100E10004A684263036230BC704700BF0000014073
:100E200030B4036A026A22F4807202624268C469C2
:100E300024F0730C0C6844EA0C0523F400738C68EE
:100E400043EA0423114CA04203D004F58064A0427D
:100E500006D123F40063CC6843EA042323F48063BF
:100E60000A4CA04203D004F58064A04207D122F4CA
:100E700040524C6942EA04128C6942EA0412426010
:100E8000C5614A68C263036230BC7047000001401C
:100E900030B4036A026A22F4805202624468C26972
:100EA00022F4E6420D6842EA052223F400538D68DD
:100EB00043EA0533094DA84203D005F58065A842F1
:100EC00004D124F480444D6944EA85144460C2612D
:100ED0004A680264036230BC704700BF00000140F2
:100EE0000368344A904212D0B0F1804F0FD0A2F57F
:100EF0007C4290420BD002F58062904207D002F50E
:100F00008062904203D002F57842904203D123F0F0
:100F100070034A681343274A90422AD0B0F1804FA9
:100F200027D0A2F57C42904223D002F58062904205
:100F30001FD002F5806290421BD002F578429042A9
:100F400017D002F57052904213D002F580629042A1
:100F50000FD002F5806290420BD0A2F598329042F9
:100F600007D002F58062904203D002F58062904281
:100F700003D123F44073CA68134323F080034A6902
:100F8000134303608B68C3620B688362094B98420A
:100F900003D003F58063984201D10B6903630123F9
:100FA0004361036913F0010F03D0036923F00103C8
:100FB000036170470000014040B310B5044690F84B
:100FC0003D30F3B1022384F83D30214651F8040B43
:100FD000FFF786FF012384F8463084F83E3084F81A
:100FE0003F3084F8403084F8413084F8423084F84F
:100FF000433084F8443084F8453084F83D30002094
:1010000010BD80F83C3001F041F8DBE7012070476B
:10101000002853D0F8B50D46044690F83D30002B1B
:1010200047D0022384F83D302268936823F480433C
:1010300023F007039360214651F8040BFFF750FF9C
:1010400021688B688A690E6A2868184322F4407206
:1010500022F00302AB68AF6943EA0723134323F48A
:101060007C4323F0FC03EA68EF6942EA07221A4353
:101070002B6A1B032F6943EA0713134326F0AA06C2
:101080006A686D6942EA05123243886021688B61A3
:1010900023681A62012384F8463084F83E3084F8CD
:1010A0003F3084F8423084F8433084F83D300020EB
:1010B000F8BD80F83C3000F0B5FFB2E70120704782
:1010C00030B4036A026A22F0100202624468826944
:1010D00022F4E6420D6842EA052223F020038D68DF
:1010E00043EA0513114DA84203D005F58065A842D7
:1010F00006D123F08003CD6843EA051323F04003B3
:101100000A4DA84203D005F58065A84207D124F412
:1011100040644D6944EA85048D6944EA850444606D
:1011200082614A688263036230BC704700000140FC
:1011300038B590F83C30012B66D004460D460123AB
:1011400080F83C300C2A5AD8DFE802F00759595988
:101150001B5959593059595944000068FFF728FE66
:101160002268936943F0080393612268936923F02E
:10117000040393612268936929690B4393610020FA
:101180003EE00068FFF79CFF2268936943F4006328
:1011900093612268936923F4806393612268936961
:1011A000296943EA01239361002029E00068FFF7E1
:1011B00037FE2268D36943F00803D3612268D369FC
:1011C00023F00403D3612268D36929690B43D361F7
:1011D000002015E00068FFF75BFE2268D36943F446
:1011E0000063D3612268D36923F48063D3612268EA
:1011F000D369296943EA0123D361002000E001207B
:10120000002384F83C3038BD0220FCE701F01F01C8
:101210004FF0010C0CFA01FC036A23EA0C03036291
:10122000036A8A40134303627047000010B5044606
:101230000846002942D194F83E30DBB2013B18BF8A
:101240000123002B6ED1002851D1022384F83E30B7
:10125000012201462068FFF7D9FF2368334A9342F1
:1012600003D002F58062934203D15A6C42F40042EB
:101270005A6423682D4A934249D0B3F1804F46D037
:10128000A2F57C42934242D002F5806293423ED066
:1012900002F5806293423AD002F57842934236D00A
:1012A00002F57052934232D0A2F5943293422ED07E
:1012B0001A6842F001021A60002032E0042908D0C6
:1012C00008290DD094F84130DBB2013B18BF01234F
:1012D000B7E794F83F30DBB2013B18BF0123B0E71A
:1012E00094F84030DBB2013B18BF0123A9E7042882
:1012F00005D0082807D0022384F84130A8E702234C
:1013000084F83F30A4E7022384F84030A0E79A68CD
:1013100002F00702062A07D01A6842F001021A609A
:10132000002010BD0120FCE70020FAE7000001408A
:1013300038B5044690F83E00C0B294F83F3094F8B7
:101340004220D2B294F843C00D46B1B9012849D128
:10135000012A48D1022384F83E3084F842307DB31C
:10136000042D39D0012200212068FFF74FFF012210
:1013700004212068FFF74AFF27E0DBB25FFA8CFC0C
:10138000042912D0012833D1012B2CD1012A31D1CB
:10139000BCF1010F30D1022384F83E3084F83F3095
:1013A00084F8423084F84330D9E7012B1CD1BCF1DA
:1013B000010F1BD1022384F83F3084F84330CEE77D
:1013C000012200212068FFF721FF2268136843F003
:1013D00001031360002006E0012204212068FFF7CA
:1013E00015FFF2E7012038BD0120FCE71846FAE7B7
:1013F0000120F8E71846F6E71046F4E790F83C209D
:10140000012A3DD010B40346012280F83C2002227C
:1014100080F83D2002685068946820F0700C0868DD
:1014200040EA0C0050601A68164882421AD0B2F1A5
:10143000804F17D0A0F57C40824213D000F5806029
:1014400082420FD000F5806082420BD000F57840D8
:10145000824207D000F57050824203D0A0F594304C
:10146000824204D124F08004496821439160012222
:1014700083F83D20002083F83C005DF8044B704762
:101480000220704700000140002800F0E08170B5A4
:1014900082B00446036813F0010F3BD09F4B9B685A
:1014A00003F00C03042B2CD09C4B9B6803F00C0323
:1014B000082B21D06368B3F5803F4FD0B3F5A02F40
:1014C00052D0964B1A6822F480321A601A6822F4BD
:1014D00080221A606368002B50D000F0A1FC054602
:1014E0008E4B1B6813F4003F14D100F099FC401B95
:1014F0006428F5D90320B1E1884B5B6813F4800FB1
:10150000D8D0864B1B6813F4003F03D06368002BD0
:1015100000F09F81236813F0020F54D07F4B9B682B
:1015200013F00C0F3ED07D4B9B6803F00C03082B8F
:1015300033D0E368002B68D0794B01221A6000F0A9
:101540006FFC0546754B1B6813F0020F54D100F079
:1015500067FC401B0228F5D903207FE16F4A13681E
:1015600043F480331360B5E76C4B1A6842F4802271
:101570001A601A6842F480321A60ABE700F050FC3F
:101580000546664B1B6813F4003FC3D000F048FCCF
:10159000401B6428F5D9032060E1604B5B6813F4BD
:1015A000800FC6D15D4B1B6813F0020F03D0E368B8
:1015B000012B40F05081594A136823F0F803216948
:1015C00043EAC1031360236813F0080F42D0636934
:1015D0006BB3534B0122C3F8802E00F021FC05466B
:1015E0004E4B5B6F13F0020F34D100F019FC401B1F
:1015F0000228F5D9032031E1484A136823F0F803A3
:10160000216943EAC1031360DDE7454B00221A60FC
:1016100000F006FC0546414B1B6813F0020FD2D0C8
:1016200000F0FEFB401B0228F5D9032016E13C4BDD
:101630000022C3F8802E00F0F3FB0546374B5B6FAA
:1016400013F0020F06D000F0EBFB401B0228F5D987
:10165000032003E1236813F0040F77D02F4B1B6C9A
:1016600013F0805F33D1002301932C4B1A6C42F0AE
:1016700080521A641B6C03F080530193019B012577
:10168000284B1B6813F4807F23D0A368012B34D030
:10169000052B38D0214B1A6F22F001021A671A6FFE
:1016A00022F004021A67A368002B3DD000F0B8FBBB
:1016B00006461A4B1B6F13F0020F46D100F0B0FB29
:1016C000801B41F288339842F3D90320C6E00025FD
:1016D000D6E7144A136843F48073136000F0A0FB4C
:1016E0000646104B1B6813F4807FCED100F098FBA8
:1016F000801B0228F5D90320B0E0084A136F43F09D
:1017000001031367CFE7054B1A6F42F004021A6713
:101710001A6F42F001021A67C5E700BF00380240A5
:10172000000047420070004000F07AFB0646524B32
:101730001B6F13F0020F08D000F072FB801B41F208
:1017400088339842F3D9032088E0EDB9A369002BD0
:1017500000F08380484A926802F00C02082A51D0B7
:10176000022B17D0454B00221A6600F059FB0446A5
:10177000414B1B6813F0007F42D000F051FB001B6F
:101780000228F5D9032069E03B4A136C23F080530B
:101790001364DBE7394B00221A6600F041FB054673
:1017A000354B1B6813F0007F06D000F039FB401B5F
:1017B0000228F5D9032051E0E369226A1343626AE3
:1017C00043EA8213A26A5208013A43EA0243E26AF8
:1017D00043EA0263284A5360284B01221A6600F04C
:1017E0001FFB0446244B1B6813F0007F06D100F05A
:1017F00017FB001B0228F5D903202FE000202DE065
:1018000000202BE0012B2BD01B4B5B6803F48001E5
:10181000E269914226D103F03F02216A8A4223D134
:10182000616A47F6C0721A40B2EB811F1ED103F401
:101830004031A26A5208013AB1EB024F18D103F0CD
:101840007063E26AB3EB026F14D1002006E001205E
:101850007047012002E0012000E0002002B070BDCE
:101860000120FBE70120F9E70120F7E70120F5E778
:101870000120F3E70120F1E7003802400000474271
:1018800008B5334B9B6803F00C03042B5BD0082B8B
:101890005BD12F4B5A6802F03F025B6813F4800F54
:1018A0002CD02B4B5868C0F388104FEA401CBCEB7F
:1018B000000C6EEB0E0E4FEA8E1343EA9C634FEA68
:1018C0008C11B1EB0C0163EB0E03DB0043EA5173A7
:1018D000C90011EB000C43F10003590200234FEA49
:1018E0004C2041EADC51FFF73FF9194B5B68C3F329
:1018F000014301335B00B0FBF3F008BD144B5868A3
:10190000C0F388104FEA401CBCEB000C6EEB0E0ECF
:101910004FEA8E1343EA9C634FEA8C11B1EB0C0142
:1019200063EB0E03DB0043EA5173C90011EB000CBB
:1019300043F10003990200234FEA8C2041EA9C51B5
:10194000FFF712F9D1E70348D7E70348D5E700BF0F
:101950000038024000127A000024F400002800F051
:101960009B8070B50D4604464F4B1B6803F0070380
:101970008B4208D2CBB24C4A1370136803F00703B2
:101980008B4240F08B80236813F0020F17D013F0C6
:10199000040F04D0454A936843F4E05393602368EE
:1019A00013F0080F04D0414A936843F460439360F6
:1019B0003E4A936823F0F003A1680B4393602368C9
:1019C00013F0010F32D06368012B21D09A1E012A37
:1019D00025D9364A126812F0020F61D033498A685D
:1019E00022F0030213438B6000F01AFA06462F4BD5
:1019F0009B6803F00C036268B3EB820F16D000F013
:101A00000FFA801B41F288339842F0D9032042E05C
:101A1000264A126812F4003FE0D101203BE0234A3D
:101A2000126812F0007FD9D1012034E01E4B1B68F0
:101A300003F00703AB4207D9EAB21B4B1A701B68CD
:101A400003F00703AB422DD1236813F0040F06D037
:101A5000164A936823F4E053E1680B4393602368CC
:101A600013F0080F07D0114A936823F460432169EB
:101A700043EAC1039360FFF703FF0C4B9B68C3F37A
:101A800003130B4AD35CD8400A4B18600A4B186802
:101A900000F07AF9002070BD012070470120FAE7BC
:101AA0000120F8E70120F6E7003C02400038024040
:101AB000D04D0008080000200400002000230F2B58
:101AC00000F2E98070B582B065E085684FEA430EA8
:101AD000032404FA0EF425EA0405CC6804FA0EF493
:101AE0002C438460446824EA02044A68C2F300126A
:101AF0009A40224342605CE0DC08083450F824201D
:101B000003F00705AD004FF00F0E0EFA05FE22EAB6
:101B10000E0E0A69AA4042EA0E0240F824205CE058
:101B2000072200E0002202FA0EF22A4302345A4D44
:101B300045F82420594A94686FEA0C0224EA0C05FF
:101B40004E6816F4801F01D04CEA0405534CA56082
:101B5000E46802EA04054E6816F4001F01D04CEA5E
:101B600004054E4CE560646802EA04054E6816F40C
:101B7000003F01D04CEA0405484C656024682240CF
:101B80004D6815F4803F01D04CEA0402434C2260BA
:101B900001330F2B7DD801229A400C6804EA020C15
:101BA00032EA0404F4D14C6804F00304013C012C33
:101BB0008BD94A6802F00302032A09D0C4685D0089
:101BC0000322AA4024EA02048A68AA402243C2608F
:101BD0004A6802F00302022A8ED004684FEA430EDC
:101BE000032202FA0EF224EA02044A6802F0030217
:101BF00002FA0EF2224302604A6812F4403FC7D054
:101C000000220192264A546C44F480445464526C7D
:101C100002F480420192019A9C08A51C1E4A52F8C7
:101C2000255003F0030E4FEA8E0E0F2202FA0EF239
:101C300025EA02051B4A90423FF474AF02F5806228
:101C400090421AD002F58062904218D002F580626C
:101C5000904216D002F58062904214D002F5806264
:101C6000904212D002F58062904210D002F580625C
:101C700090423FF455AF082255E7012253E7022274
:101C800051E703224FE704224DE705224BE70622E6
:101C900049E702B070BD704700380140003C014088
:101CA00000380240000002400AB181617047090417
:101CB00081617047002808DB0901C9B200F160406A
:101CC00000F5614080F80013704700F00F00090133
:101CD000C9B2014B1954704714ED00E000B500F093
:101CE0000700C0F1070CBCF1040F28BF4FF0040C33
:101CF000031D062B0FD9C31E4FF0FF3E0EFA0CF04A
:101D000021EA000199400EFA03FE22EA0E0241EA9E
:101D100002005DF804FB0023EEE70000074AD368E9
:101D200023F4E0631B041B0C000200F4E060034397
:101D300043F0BF6343F40033D360704700ED00E02D
:101D400010B50446054BD868C0F30220FFF7C6FF64
:101D500001462046FFF7AEFF10BD00BF00ED00E0DA
:101D60000138B0F1807F0BD24FF0E0235861054A73
:101D7000F02182F823100020986107221A61704731
:101D80000120704700ED00E010B504460E4B1A78B4
:101D90004FF47A73B3FBF2F30C4A1068B0FBF3F024
:101DA000FFF7DEFF68B90F2C01D901200AE00022FD
:101DB00021464FF0FF30FFF7C3FF054B1C600020AA
:101DC00000E0012010BD00BF00000020080000203E
:101DD0000400002008B50B4B1A6842F400721A6028
:101DE0001A6842F480621A601A6842F480721A60BB
:101DF0000320FFF793FF0020FFF7C6FFFEF7B8FFB1
:101E0000002008BD003C0240034A1168034B1B78C8
:101E10000B441360704700BFF40100200000002055
:101E2000014B1868704700BFF4010020034AD2F844
:101E3000883043F47003C2F88830704700ED00E04A
:101E400010B503460C4A0D490D48006840B10C48D6
:101E500000680344521A934206D8094A136010BD21
:101E60000748084C0460F2E700F07EFF0C23036093
:101E70004FF0FF30F3E700BF000002200004000035
:101E8000F8010020D80300200120704708B500F0B9
:101E90006BFF162303604FF0FF3008BD08B54FF00D
:101EA000FF31FFF7F3FFFEE770B50C46164600253D
:101EB00006E0AFF30080214601F8010B01350C4626
:101EC000B542F6DB304670BD4FF0FF3070474FF43F
:101ED00000534B600020704701207047002070477E
:101EE0004FF06043D3F8803E13F0010F11D04FF054
:101EF0006043D3F8003E13F0010F01D1704700BFDB
:101F00004FF060431B68002BF9D0C3B24FF0604222
:101F10001370704770B50E461546002403E0305D1F
:101F2000FFF7DEFF0134AC42F9DB204670BD000054
:101F300030B58BB000240594069407940894099456
:101F400001941E4B1A6B42F080021A631A6B02F066
:101F500080020192019A02941A6B42F001021A6304
:101F60001A6B02F001020292029A03941A6B42F079
:101F700010021A631A6B02F010020392039A04947F
:101F80001A6B42F008021A631B6B03F008030493F8
:101F9000049B0B4D22464FF410412846FFF784FE68
:101FA0004FF410430593012306930794089405A961
:101FB0002846FFF783FD0BB030BD00BF003802405C
:101FC0000010024000B58DB02422002103A800F0CB
:101FD00078FE00230193029311484FF08042026083
:101FE000436083604FF0FF32C2600361836101236D
:101FF00003930593099303A9FFF70AF850B9002347
:102000000193029301A90648FFF7F8F928B90DB02A
:102010005DF804FBFEF70CFEF1E7FEF709FEF6E7BC
:102020004402002000B589B0002303930493059374
:10203000069307930368B3F1804F02D009B05DF8AF
:1020400004FB0021019103F50E331A6C42F00102EA
:102050001A641A6C02F001020192019A02911A6B41
:1020600042F001021A631B6B03F001030293029B0F
:1020700003230393022304930123079303A9024834
:10208000FFF71CFDDAE700BF000002400268094BC1
:102090009A4200D0704782B000230193064B1A6C1D
:1020A00042F004021A641B6C03F004030193019BC9
:1020B00002B07047000800400038024000B587B009
:1020C00000230193029303930493059302680E4B3C
:1020D0009A4202D007B05DF804FB002300930B4B3B
:1020E0001A6B42F008021A631B6B03F0080300939B
:1020F000009B4FF40043019302230293059301A92F
:102100000348FFF7DBFCE5E7000800400038024029
:10211000000C024000B58BB0002308930993019393
:102120000293039304930593069307931848194A5F
:102130000260A7224260836042F20F72C2600361B4
:102140008361FEF739FFC8B900230893099308A9F2
:102150000F48FFF753F9A0B96023019300230293BE
:10216000039305930C2201A90948FEF7E1FF58B932
:102170000748FFF7A3FF0BB05DF804FBFEF758FD1F
:10218000E2E7FEF755FDE7E7FEF752FDF0E700BF97
:10219000FC01002000080040DFF834D0FFF746FEC5
:1021A0000C480D490D4A002302E0D458C4500433B2
:1021B000C4188C42F9D30A4A0A4C002301E0136088
:1021C0000432A242FBD300F0D5FDFEF789FD704733
:1021D0000000022000000020D4010020645100080B
:1021E000D4010020D8030020FEE72DE9FF4757EC7B
:1021F000106B002F0C4619463B46BBBF07F100434E
:102200001F4600232D230B700D9BDDF830A0914657
:1022100023F02008BCBF32461646B8F1460F05D061
:10222000B8F1450F00D10134022100E0032103ABD6
:10223000019302AB009347EC106B5346224600F02B
:102240004BFEB8F1470F054619D119F0010F0ED01A
:1022500000EB04090022002330463946FEF714FC47
:1022600008B1CDF80C903022039B4B451ED3039B45
:102270000E9A5B1B2846136004B0BDE8F087B8F1E6
:10228000460F00EB0409E5D10378302B0AD1002278
:10229000002330463946FEF7F7FB18B9C4F10104B4
:1022A000CAF80040DAF800309944D3E7591C03918A
:1022B0001A70D9E7F7B50029BABF49422D232B235D
:1022C00009290270437029DD0DF107031D460A2715
:1022D0001A46B1FBF7F607FB1614303402F8014C2E
:1022E0000C46632C03F1FF333146F1DC3031941E90
:1022F00003F8011C411C2346AB420AD30DF109032C
:102300009B1AAC4288BF002302330344181A03B05F
:10231000F0BD13F8016B01F8016FEDE730233031A8
:102320008370C170031DF1E72DE9F04F8DB00C46AD
:10233000DDF8588016461F46054600F0CBFC0368C2
:1023400004931846FDF774FF00230A93D8F8003071
:102350000590073323F0070303F1080294F818A04F
:10236000D4F800B0C8F80020D3E9008929F0004370
:102370000793CDF81880C4E91289DDE906019C4B6A
:102380004FF0FF32FEF7B2FB70BBDDE90601984B60
:102390004FF0FF32FEF78CFB30BB0022002340469B
:1023A0004946FEF77BFB10B12D2384F84330914A58
:1023B000914BBAF1470F8CBF904698460323236197
:1023C0002BF0040323604FF00009009733460BAA5B
:1023D0002146284600F0D2F9013040F08D804FF0C0
:1023E000FF300DB0BDE8F08F42464B4640464946AF
:1023F000FEF77CFB40B14B46002BBCBF2D2384F87D
:1024000043307E4A7E4BD4E763680AF0DF020692CF
:102410005A1C3BD1062363604BF480620023226088
:1024200003930AABCDE901A309AB0093616849ECC2
:10243000108B0DF123032846FFF7D7FE069B099961
:10244000472B804629D1C81C02DB6368994241DDD5
:10245000AAF1020A5FFA8AFA0139524604F15000E1
:102460000991FFF727FF0A9A1318012A8146236171
:1024700002DC2268D20701D5013323619DF82330A5
:10248000002BA2D02D2384F843309EE7069A472ADA
:10249000C2D1002BC0D10123BDE7BAF1650FDBD952
:1024A000BAF1660F18D1002963680BDD216113B9F9
:1024B0002268D00702D501330B442361A1654FF098
:1024C0000009DBE713B92268D20701D50233F4E72C
:1024D0000123F2E74FF0670A0A9B994205DB236864
:1024E0002161D807EAD54B1CE7E70029D4BFC1F129
:1024F000020201221344E0E723685A0507D4236946
:10250000424631462846B84701302BD167E7BAF139
:10251000650F40F2DD80D4E9120100220023FEF7AE
:10252000B3FA002833D0374A012331462846B8474A
:1025300001303FF454AFDDE90938434502DB23683D
:10254000D8070FD5DDE9042331462846B8470130C6
:102550003FF445AF4FF0000908F1FF3804F11A0AC3
:10256000C84509DC23689B0700F10381E0680B9BE9
:102570009842B8BF184634E70123524631462846F0
:10258000B84701303FF42BAF09F10109E8E7099B97
:10259000002B39DC1B4A012331462846B84701305D
:1025A0003FF41DAFDDE9093959EA030302D123687D
:1025B000D907D7D5DDE9042331462846B84701308D
:1025C0003FF40DAF4FF0000A04F11A0B099B5B4278
:1025D000534501DC4B4693E701235A4631462846D2
:1025E000B84701303FF4FBAE0AF1010AEEE700BF45
:1025F000FFFFEF7FE44D0008E04D0008EC4D0008C0
:10260000E84D0008F04D0008A36DDDF828A0534503
:10261000A8BF5346002B994636DC4FF0000B29EA41
:10262000E97904F11A02A36D0693A3EB09035B4554
:1026300031DC099B9A453ADC2368DA0737D4099BD9
:10264000AAEB0309069BAAEB03039945A8BF994689
:10265000B9F1000F33DC4FF0000829EAE97904F101
:102660001A0B099BAAEB0303A3EB090343457FF76E
:1026700079AF01235A4631462846B84701303FF426
:10268000AEAE08F10108ECE7424631462846B847AD
:102690000130C2D1A3E60123314628460692B8474D
:1026A00001303FF49CAE069A0BF1010BBBE7DDE96C
:1026B000042331462846B8470130C0D18FE6069A38
:1026C0004B46424431462846B8470130C3D186E6DE
:1026D000DDF828A0BAF1010F01DCDB0736D50123B4
:1026E000424631462846B84701303FF478AEDDE92E
:1026F000042331462846B84701303FF470AED4E990
:102700001201002200230AF1FF3AFEF7BDF9C0B919
:10271000534608F1010231462846B84701300CD132
:102720005DE601235A4631462846B84701303FF45A
:1027300056AE08F10108D045F3DB4B4604F15002D8
:10274000DFE64FF0000804F11A0BF4E701234246DC
:10275000E1E701234A4631462846B84701303FF4B5
:102760003EAE08F10108E3680B995B1A4345F0DCC3
:10277000FCE64FF0000804F11909F4E72DE9F047F1
:10278000164698468A680B69DDF820909342B8BFD8
:102790001346336091F8432007460C460AB10133D3
:1027A00033602368990642BF33680233336025687B
:1027B00015F0060506D104F1190AE36832689B1A80
:1027C000AB4226DC94F843302268003B18BF01235B
:1027D00092062BD404F1430241463846C8470130E3
:1027E0001ED02368226903F00603042B02BFE568AC
:1027F0003368ED1AA3680CBF25EAE57500259342FE
:10280000C4BF9B1AED1800261A34B5421AD1002015
:1028100008E00123524641463846C847013003D1FB
:102820004FF0FF30BDE8F0870135C6E7E1185A1CCC
:10283000302081F84300224494F8451082F8431078
:102840000233C7E70123224641463846C8470130D4
:10285000E6D00136D9E700002DE9FF470F7E0C9E38
:10286000782F914680460C469A4601F1430207D8DC
:10287000622F0AD8002F00F0D180582F00F0B880C6
:1028800004F1420684F842703AE0A7F16303152B85
:10289000F6D801A151F823F0F12800080529000815
:1028A0008128000881280008812800088128000864
:1028B00005290008812800088128000881280008CF
:1028C00081280008032A00082F290008BD290008D4
:1028D0008128000881280008252A0008812800088E
:1028E0002F2900088128000881280008C529000830
:1028F00033681A1D1B68326004F1420684F84230C6
:1029000001239CE033682068191D3160060601D55B
:102910001D6803E04506FBD5B3F90050002D03DA2E
:102920002D236D4284F8433058480A2311E0216872
:102930003368080653F8045B02D4490648BFADB2B9
:102940006F2F5248336014BF0A230823002184F8F4
:1029500043106668A660002E05DB21682E4321F037
:10296000040121604BD01646B5FBF3F103FB115770
:10297000C75D06F8017D2F46BB420D46F4D9082BF2
:102980000BD12368DF0708D5236961689942DEBF50
:10299000302306F8013C06F1FF36921B2261CDF888
:1029A00000A04B4603AA21464046FFF7E7FE013050
:1029B0004AD14FF0FF3004B0BDE8F087236843F000
:1029C000200323603248782784F8457023683168F3
:1029D0001F0651F8045B02D45F0648BFADB23160F8
:1029E000D90744BF43F0200323601DB11023ADE796
:1029F0002648E9E7236823F020032360F6E716461C
:102A0000BDE7336825686169181D30602E061B68B4
:102A100001D5196002E06806FBD519800023236107
:102A20001646BCE733681A1D32601E6862680021D2
:102A30003046FDF7ADFB08B1801B60606368236121
:102A4000002384F84330AAE72369324649464046CA
:102A5000D0470130ADD023689B0713D4E068039BB7
:102A60009842B8BF1846A6E7012332464946404679
:102A7000D04701309DD00135E36803995B1AAB4222
:102A8000F2DCEBE7002504F11906F5E7F24D00084A
:102A9000034E0008002310B50446C0E90033C0E926
:102AA0000433836081814366C281836119460822B1
:102AB0005C3000F006F90D4B63620D4BA3620D4BC9
:102AC000E3620D4B23630D4B24629C4206D003F15D
:102AD0006802944202D0D0339C4205D104F15800E0
:102AE000BDE8104000F06AB910BD00BF3D2C0008E1
:102AF0005F2C0008972C0008BB2C00088C020020DB
:102B0000024A0349034800F069B800BF0C000020E6
:102B1000CD4600081C00002041680C4B994210B5BE
:102B2000044601D001F0D2FDA168094B994202D0C0
:102B3000204601F0CBFDE168064B994204D02046C7
:102B4000BDE8104001F0C2BD10BD00BF8C020020E6
:102B5000F40200205C03002010B50B4B0B4C0C4A18
:102B60001A60204600220421FFF794FF04F1680058
:102B700001220921FFF78EFF04F1D0000222BDE8F7
:102B800010401221FFF786BFC40300208C020020F2
:102B9000012B0008014800F012B900BFCD0300204E
:102BA000014800F00DB900BFCD03002010B5044668
:102BB000FFF7F0FF236A1BB1BDE81040FFF7F0BF3D
:102BC000044B2362044B1B68002BF5D1FFF7C4FFB5
:102BD000F2E700BF192B0008C40300202DE9F843D9
:102BE0000746884614460026D4E90195B9F1010943
:102BF00005D52468002CF7D13046BDE8F883AB89B1
:102C0000012B07D9B5F90E30013303D029463846D8
:102C1000C04706436835E9E70FB407B5064904AB7A
:102C2000086853F8042B8168019301F0B3FB03B0EB
:102C30005DF804EB04B070471800002010B50C4696
:102C4000B1F90E1000F06CF80028ABBF636DA389DA
:102C50001B1823F48053ACBF6365A38110BD2DE91D
:102C6000F0411F468B89DB0505460C46164605D507
:102C7000B1F90E100223002200F040F8A389B4F944
:102C80000E1023F48053A38132463B462846BDE80C
:102C9000F04100F057B810B50C46B1F90E1000F035
:102CA0002DF8431CA38915BF606523F4805343F4BA
:102CB0008053A38118BFA38110BDB1F90E1000F09D
:102CC0000DB802440346934200D1704703F8011B3C
:102CD000F9E70000004870475801002038B5064D5C
:102CE0000023044608462B60FFF7EEF8431C02D190
:102CF0002B6803B1236038BDC803002038B5074DE9
:102D000004460846114600222A601A46FFF7E6F8F4
:102D1000431C02D12B6803B1236038BDC8030020D7
:102D200038B5074D04460846114600222A601A4667
:102D3000FFF7BAF8431C02D12B6803B1236038BDFA
:102D4000C803002038B5074D044608461146002246
:102D50002A601A46FFF7DEF8431C02D12B6803B144
:102D6000236038BDC8030020014B1868704700BFBE
:102D70001800002070B50D4D0D4C641BA4100026EA
:102D8000A64209D10B4D0C4C02F00CF8641BA410A8
:102D90000026A64205D170BD55F8043B9847013680
:102DA000EEE755F8043B98470136F2E75C5100081E
:102DB0005C5100085C510008605100087047704782
:102DC00070472DE9F74F03690C69A34207467EDB84
:102DD000013C01F11408A30000F11405009305EB78
:102DE0008403019358F8243055F8242001339A4283
:102DF00008EB8409B2FBF3F62ED34FF0000AC44669
:102E0000AE46D3465CF8043B98B206FB00A0020C29
:102E10001B0C06FB0323DEF8002080B292B2121ACC
:102E20005A44DEF800004FEA134A9BB2C3EB224338
:102E300003EB104392B242EA0342E1454EF8042B01
:102E40004FEA234BDED2009BEB582BB9019B043B8E
:102E50009D421A462FD33C61384601F069F900289B
:102E600025DB2946002058F8042BD1F800C01FFAB2
:102E700082FE1FFA8CF3A3EB0E030344120CC2EB89
:102E8000234202EB1C429BB243EA0243C14541F894
:102E9000043B4FEA2240E6D255F8242005EB840398
:102EA00022B9043B9D421A460BD33C6101363046A1
:102EB00003B0BDE8F08F1268043B002ACBD1013C7F
:102EC000C6E71268043B002AEFD1013CEAE7002084
:102ED000EEE70000000000002DE9F04FC76999B04F
:102EE0008DED040B55EC104B229E099183460E92FA
:102EF00013937FB9102000F0F3FD0246CBF81C00BD
:102F000020B9A54BEF21A54801F0BAFCC0E9017733
:102F10000760C760DBF81C30196859B15A684A600D
:102F2000012393408B60584600F0D0FEDBF81C3044
:102F300000221A602B1EB9BF23F000430593002323
:102F40003360059F964BBCBF01223260BB4312D158
:102F5000139A42F20F731360C7F31303234300F075
:102F60004385239BDFF84CA2002B00F045850AF136
:102F7000030300F03FBD9DED047B002251EC170BD5
:102F800000238DED0C7BFDF77FFD804658B1139A31
:102F900001231360239B13B1239A824B1360DFF844
:102FA00018A200F029BD9DED0C0B16AA17A95846D2
:102FB00001F06EF9C7F30A568146002E77D00D9BBB
:102FC000CDF85080C3F31303DDE90C0143F07F53C8
:102FD00043F44013A6F2FF3619460022724BFDF768
:102FE00033F967A3D3E90023FDF7E6FA66A3D3E933
:102FF0000023FDF72BF9044630460D46FDF772FA23
:1030000063A3D3E90023FDF7D7FA02460B46204617
:103010002946FDF71BF904460D46FDF77DFD00220C
:103020000746002320462946FDF738FD40B13846C3
:10303000FDF758FA22462B46FDF726FD00B9013F61
:10304000162F51D8594B03EBC703D3E90023DDE911
:103050000C01FDF723FD002848D0013F0023129307
:10306000169B9B1B5A1E44BFC3F101080023089204
:1030700054BF4FF000080893002F39DB089B0F97CF
:103080003B44089300230A93099B092B61D8052B25
:10309000C4BF043B0993099BA3F10203CCBF0024E6
:1030A0000124032B61D8DFE803F05052352ADDE913
:1030B00016631E4406F23243202BC1BFC3F1400306
:1030C0009F4006F2124324FA03F3D6BFC3F1200354
:1030D00047EA030004FA03F0FDF7F4F90122A1F135
:1030E000F873013E149277E70123B8E71290B7E72F
:1030F0007B420A930023A8EB07080F93C4E7012340
:103100000B930E9BFB1800930133012B0393B8BF65
:10311000012306E001230B930E9B002B28DD009377
:103120000393DBF81C000021042202F114059D42E8
:1031300023D94160584600F089FD824600283DD1E0
:103140001B4B024640F2AF11DDE60023E3E700230C
:10315000D6E70124002309930B944FF0FF3300932B
:103160000393002212230E92DBE701230B93F4E773
:103170000123009303931A46F5E701315200D4E787
:1031800061436F63A787D23FB3C8608B288AC63F6D
:10319000FB799F501344D33F214E0008384E00085E
:1031A0000000F07FF14D00080000F83F884F000854
:1031B000914E00081D4E0008F04D0008DBF81C3051
:1031C0001860039B0E2B00F2A180002C00F09E8063
:1031D000002F33DD9C4B07F00F0203EBC20393ED8E
:1031E000007BF8058DED067B4FEA271416D5974B2B
:1031F000DDE90C01D3E90823FDF708FBCDE9040163
:1032000004F00F040326914D54B9DDE90623DDE9EE
:103210000401FDF7FBFACDE9040128E00226F2E7FC
:10322000E10708D5DDE90601D5E90023FDF7C4F97A
:10323000CDE90601013664100835E5E700F0AF80FE
:103240007C42814B814D04F00F0203EBC203D3E9B2
:103250000023DDE90C01FDF7AFF9CDE904012411EC
:1032600000230226002C40F08F80002BD3D1129B2C
:10327000DDE90445002B00F09480754B00222046C8
:103280002946FDF70BFC002800F08B80039B002BE8
:1032900000F08780009B002B34DD7B1E06932046C8
:1032A0006C4B00222946FDF787F9CDE90401009C0B
:1032B00001363046FDF716F9DDE90423FDF77CF908
:1032C000654B0022FCF7C2FF0546A1F15076002CA9
:1032D0006AD1DDE90401614B0022FCF7B5FF02462B
:1032E0000B46CDE904232A463346FDF7F5FB0028BB
:1032F00040F08782DDE904012A4606F10043FDF72C
:10330000CDFB38BBDDE90C34CDE90434179B002B31
:10331000C0F258810E2F00F355814B4B03EBC703CE
:1033200093ED007B0E9B002B8DED007B80F2E58002
:10333000039B002B00F3E1800CD1484B002251ECA1
:10334000170BFDF739F9DDE90423FDF7BBFB002876
:1033500000F05582002425460E9BDB43069356461B
:1033600000272146584600F0B1FC002D00F0BD803A
:103370002FB1AF4203D03946584600F0A7FC29468A
:10338000584600F0A3FCB0E0E20705D5D5E90023DC
:10339000FDF712F9013601236410083562E70226B1
:1033A00065E7039C069784E7274B0B9903EBC4035F
:1033B00053E902235444002954D029490020FDF741
:1033C00025FA33462A46FCF73FFFCDE91001564661
:1033D000DDE90401FDF7A0FB0546FDF783F8024691
:1033E0000B46DDE90401FCF72FFF303502460B46A2
:1033F000CDE9042306F8015BDDE91023FDF74EFB60
:10340000002872D1DDE9042311490020FCF71CFFDC
:10341000DDE91023FDF742FB002840F0B480A6420E
:103420003FF470AFDDE910010A4B0022FDF7C4F84C
:10343000084BCDE910010022DDE90401FDF7BCF8DD
:10344000CDE90401C4E700BF884F0008604F0008C1
:103450000000F03F0000244000001C400000144029
:103460000000E03F31462846FDF7A6F8CDE91001FF
:1034700015945646DDE90401FDF74EFB0546FDF7C0
:1034800031F802460B46DDE90401FCF7DDFE30357C
:1034900006F8015B02460B46A642CDE904234FF035
:1034A000000224D1AB4BDDE91001FCF7CFFE024650
:1034B0000B46DDE90401FDF70FFB002863D1DDE9D0
:1034C0001023A4490020FCF7BFFE02460B46DDE9AD
:1034D0000401FDF7E3FA00283FF414AF159E731EB4
:1034E000159316F8013C302BF8D0069F3BE09A4B21
:1034F000FDF762F8CDE90401BCE7DDE90445564675
:10350000DDE9002320462946FDF780F9FDF704FB9D
:103510008046FCF7E7FFDDE90023FDF74DF80246A2
:103520000B462046294608F13004FCF78DFE06F8CC
:10353000014B039DA6EB0A04A54202460B4634D17B
:10354000FCF784FEDDE9002304460D46FDF7C4FACE
:10355000C0B9DDE9002320462946FDF795FA10B1F0
:1035600018F0010F0ED14946584600F0AFFB00237A
:103570003370139B01371F60239B002B00F03C82AC
:103580001E6039E2069733461E4613F8012D392A8C
:1035900007D19A45F8D1069A0132069230228AF86C
:1035A00000201A7801321A709FE76B4B0022FDF75A
:1035B00003F80022002304460D46FDF765FA0028B3
:1035C0009ED0D0E70B9A002A00F0E180099A012AE8
:1035D00000F3C480149A002A00F0B78003F233434A
:1035E0000A9C4646089A01211A4458469844089273
:1035F00000F020FC05465EB1089B002B08DDB342BD
:10360000089AA8BF3346A8EB0308F61AD31A089302
:103610000A9BF3B10B9B002B00F0BD808CB12946B7
:103620002246584600F0BEFC4A460146054658462A
:1036300000F016FC49460690584600F047FB069BF2
:1036400099460A9B1A1B04D04946584600F0AAFC2A
:1036500081460121584600F0EDFB0F9B0446002BEC
:1036600000F0CE811A460146584600F09BFC099BAB
:10367000012B044600F39580049B002B40F08D80C5
:10368000059BC3F31303002B40F08980059B23F0B7
:1036900000431B0D1B052BB1089B0133089308F158
:1036A000010801230A930F9B002B00F0AF812369CF
:1036B00004EB8303186900F071FBC0F12000089B44
:1036C000184410F01F0077D0C0F12003042B6BDDED
:1036D000089BC0F11C000344804406440893B8F1E1
:1036E000000F05DD49464246584600F0B5FC8146CC
:1036F000089B002B05DD21461A46584600F0ACFC1D
:103700000446129B002B59D02146484600F010FD7C
:10371000002853DA7B1E0693494600230A225846A6
:1037200000F0F6FA0B9B8146002B00F0718100231C
:1037300029460A22584600F0EBFA009B002B05466A
:1037400067DC099B022B41DC63E0169BC3F1360367
:1037500046E700BF0000E03F00002440039B5C1EE2
:103760000A9BA34209DB1C1B039B002BBFF639AF4E
:10377000039BA8EB0306002334E70A9B0F9A0A94E5
:10378000E31A1A440F92039B464600242AE70A9C38
:103790000B9D46462FE70A9A56E7002382E7049BD3
:1037A00080E700230A9382E799D0089A1C331A44D1
:1037B00098441E44089292E70346F6E7039B069757
:1037C000002B20DC0093099B022B1EDD009B002BAD
:1037D0007FF4C2AD21460522584600F099FA014611
:1037E0000446484600F0A4FC00287FF7B5AD5646D5
:1037F000312306F8013B069B01330693B0E5039C99
:1038000006972546F3E7039B00930B9B002B00F0E4
:103810000381002E05DD29463246584600F01CFC87
:1038200005460A9B002B5AD06968584600F00EFAEC
:10383000064628B9834B024640F2EF21FFF763BBEF
:103840002A690232920005F10C010C3001F00AF8ED
:1038500001223146584600F0FFFB0AF101030393B1
:10386000009B53440B93049B03F001032F460A93E0
:103870000546039B2146013B48460093FFF7A1FA0A
:103880003946049000F13008484600F051FC2A46C1
:1038900008902146584600F067FCC268064602BB05
:1038A0000146484600F044FC0246314658460E9216
:1038B00000F00CFA099B0E9A039E42EA03010A9B50
:1038C000194310D1B8F1390F29D0089B002B02DD24
:1038D000049B03F13108009B83F8008041E52846F2
:1038E000BBE70122E1E7089B002B04DB09990B43AE
:1038F0000A990B4320D1002AEDDD494601225846A2
:1039000000F0AAFB2146814600F012FC002803DCEF
:10391000E1D118F0010FDED0B8F1390FD8D1009AFB
:103920003923137033461E46013B16F8012C392A01
:1039300051D001321A7014E5002A07DDB8F1390FB1
:10394000EDD0009A08F1010313700AE5039B0B9A6E
:1039500003F8018C934228D0494600230A22584696
:1039600000F0D6F9AF4281464FF000034FF00A0253
:103970003946584607D100F0CBF907460546039B68
:103980000133039375E700F0C3F929460746002386
:103990000A22584600F0BCF90546F0E7009B002BD0
:1039A000CCBF1E46012656440027494601225846F0
:1039B00000F052FB2146814600F0BAFB0028B1DC42
:1039C00002D118F0010FADD133461E4613F8012D78
:1039D000302AFAD0C5E49A45A5D1069B0133069357
:1039E00031238AF80030BCE4239BDFF85CA01BB1D4
:1039F0000AF10803239A1360504619B0BDE8F08F0E
:103A0000099B012B7FF738AE0F9B0A93012056E6E6
:103A1000009B002B7FF7D7AE564621464846FFF75E
:103A2000D0F900F1300806F8018B009BA6EB0A02E2
:103A30009342B3DD494600230A22584600F068F954
:103A40008146EAE7914E0008144E000838B5054655
:103A5000002941D051F8043C0C1F002BB8BFE418DA
:103A600000F0E8F81D4A136833B963601460284613
:103A7000BDE8384000F0E4B8A34208D92068211816
:103A80008B4201BF19685B6809182160EDE71A468F
:103A90005B680BB1A342FAD911685018A0420BD150
:103AA00020680144501883421160E0D118685B68B7
:103AB000536008441060DAE702D90C232B60D6E784
:103AC000206821188B4204BF19685B68636004BFDB
:103AD000091821605460CAE738BD00BFD403002034
:103AE000024B0146186800F025B800BF18000020FE
:103AF00070B50F4E0C463168054611B900F0A2FEB4
:103B000030602146284600F09DFE431C03D14FF053
:103B1000FF34204670BDC41C24F00304A042F8D03A
:103B2000211A284600F08EFE0130F2D1EFE700BFE7
:103B3000D00300202DE9F843CD1C25F003050835FE
:103B40000C2D38BF0C25002D064601DBA94204D9F7
:103B50000C2333600020BDE8F883DFF8D48000F048
:103B600069F8D8F800301C4644BB29463046FFF7B8
:103B7000BFFF431C044658D1D8F800402746002F09
:103B800043D1002C4BD023683946304604EB03095F
:103B900000F058FE814542D121686D1A2946304611
:103BA000FFF7A6FF01303AD023682B442360D8F8F2
:103BB00000305A6862BBC8F800700FE02268521BE0
:103BC00020D40B2A17D96119A342256018BF596068
:103BD000636808BFC8F8001062514B60304600F0BF
:103BE0002FF804F10B00231D20F00700C21A1CBFA0
:103BF0001B1AA350AFE76268A3420CBFC8F80020AD
:103C00005A60EBE723466468AEE73C467F68B6E758
:103C10001A465B68A342FBD100235360DEE70C2306
:103C20003360304600F00CF894E70560D6E700BF3B
:103C3000D40300200148FFF7C2B800BFCC03002026
:103C40000148FFF7BDB800BFCC03002070B5C669BE
:103C500004460D4676B91020FFF742FF0246E061A8
:103C600020B9184B18486B2100F00AFEC0E9016624
:103C70000660C660E669F36883B1E369DB6853F800
:103C80002500B8B9012101FA05F6721D92002046FF
:103C900000F014FE60B1C0E901560EE021220421BB
:103CA000204600F00BFEE369F060DB68002BE4D1F6
:103CB000002070BD026843F825200023C0E90333CB
:103CC000F7E700BF214E0008A24E000870B5C66994
:103CD00005460C4676B91020FFF702FF0246E86160
:103CE00020B9094B09488F2100F0CAFDC0E90166DF
:103CF0000660C6603CB1EB696268DB6853F822106D
:103D0000216043F8224070BD214E0008A24E0008F9
:103D10002DE9F0410D6907460C461E4601F1140CD1
:103D20000020DCF8003099B202FB01611E0C0B0C84
:103D300002FB063389B2013001EB034185424CF8A6
:103D4000041B4FEA1346ECDC0EB3A368AB4219DC4C
:103D5000616838460131FFF779FF804628B902468D
:103D60000C4B0D48BA2100F08BFD2269023204F1A0
:103D70000C0192000C3000F075FD21463846FFF72B
:103D8000A5FF444604EB850301355E6125612046AD
:103D9000BDE8F081914E0008A24E0008B0F5803FCA
:103DA000034636BF030400201020B3F1807F3CBFE0
:103DB0001B020830B3F1805F3CBF1B010430B3F13C
:103DC000804F3CBF9B000230002B05DB13F0804F7F
:103DD00000F1010008BF202070470368024613F07D
:103DE00007000BD0D90721D4980749BF5B089B086F
:103DF000012013605CBF13600220704799B209B9BB
:103E00001B0C1020D9B209B908301B0A190704BFCE
:103E10001B090430990704BF9B080230D90703D45B
:103E20005B0800F1010003D0136070470020704769
:103E30002020704710B50C460121FFF707FF02460E
:103E400028B9054B054840F2451100F019FD012342
:103E50004461036110BD00BF914E0008A24E0008EE
:103E60002DE9F04F17460A693B699A42A8BF3B46C5
:103E70008946A4BF0F4699463D69D9F810A0BB6892
:103E8000796805EB0A06B34285B0B8BF0131FFF788
:103E9000DDFE30B90246414B41484FF4B17100F0AC
:103EA000EFFC00F1140404EB860E23460022734558
:103EB00020D307F1140809F1140108EB850501EB83
:103EC0008A030293EB1B153B23F0030304331537DE
:103ED000BD4238BF04230193029B03918B420CD84F
:103EE000002E03DD5EF8043D002B55D0066105B0C1
:103EF000BDE8F08F43F8042BD9E7B1F800A0BAF180
:103F0000000F1FD0C446A14600275CF8042BD9F847
:103F100000301FFA82FB9BB20AFB0B333B44D9F8FB
:103F20000070120C3F0C0AFB027202EB13429BB2B0
:103F300043EA0243654549F8043B4FEA1247E4D897
:103F4000019BE750039BB3F802900431B9F1000FD5
:103F500020D023684746A4464FF0000AB7F800B0C7
:103F6000BCF8022009FB0B2252449BB243EA0243F5
:103F70004CF8043B57F8043B4FEA134ABCF80030B6
:103F800009FB0A3303EB1243BD424FEA134AE5D85B
:103F9000019AA35004349FE7013EA1E7914E000827
:103FA000A24E00082DE9F843154612F00302074619
:103FB0000E4607D0254C013A002354F82220FFF783
:103FC000A7FE0646AD103DD0FC697CB91020FFF776
:103FD00087FD0246F86128B91D4B1E4840F2B31117
:103FE00000F04EFCC0E901440460C460D7F81C80B6
:103FF000D8F808404CB940F271213846FFF71AFF53
:104000000023C8F80800044603604FF00009EB07DE
:104010000AD5314622463846FFF722FF3146804610
:104020003846FFF753FE46466D100BD0206838B96E
:10403000224621463846FFF713FF2060C0F8009063
:104040000446E4E73046BDE8F88300BF544F00085B
:10405000214E0008A24E00082DE9F0470C464968A1
:10406000236903EB6218A368074691464FEA621A78
:1040700008F10106B3420BDB3846FFF7E7FD0546C2
:1040800048B90246284B29484FF4EF7100F0F8FB7D
:1040900001315B00EEE7002300F1140100F1100292
:1040A0001846534533DB20692AEAEA7A04F11403FF
:1040B00019F01F0901EB8A0103EB800C2BD0C9F129
:1040C000200E8A460022186800FA09F010434AF8C8
:1040D000040B53F8042B9C4522FA0EF2F3D8ACEBF8
:1040E0000403153B23F00303043304F1150060457A
:1040F00088BF0423CA500AB108F10206013E3846BF
:104100002E612146FFF7E2FD2846BDE8F08742F820
:10411000040F0133C5E7043953F8042B41F8042F89
:104120009C45F9D8EAE700BF914E0008A24E00086E
:104130000A6903460069801A30B50ED11433143170
:1041400003EB820401EB820154F8045D51F8042D65
:10415000954203D005D24FF0FF3030BDA342F3D3D8
:10416000FBE70120F9E700002DE9F74F89460646F5
:10417000114648461446FFF7DBFF051E12D12946BB
:104180003046FFF763FD024628B93F4B40F2372126
:104190003E4800F075FB0123C0E90435104603B02A
:1041A000BDE8F08FBCBF4B46A1463046D9F804109D
:1041B000BABF1C4601250025FFF748FD024618B985
:1041C000314B40F24521E3E7D9F810702669C5600C
:1041D00009F1100309F1140504F1140E00F1140B98
:1041E00005EB87080EEB86060193D9464FF0000CCD
:1041F000019B5EF8040B53F804AF01931FFA8AF396
:10420000194683B2CB1A000C6344C0EB1A4000EB92
:1042100023409BB243EA0043764549F8043B4FEA0A
:10422000204CE5D8331B153B23F00303153404332E
:10423000A64238BF04231D445B441E462C46444519
:104240000ED308F10301491B21F00301033DA845EA
:1042500038BF00210B4453F8041D91B117619DE74D
:1042600054F8041BE646080C1CFA81FC714400EB70
:104270002C4089B241EA004146F8041B4FEA204C29
:10428000DDE7013FE7E700BF914E0008A24E0008BE
:104290002DE9F7430F46012159EC108B1646FFF725
:1042A000D5FC044630B90246234B244840F20F3176
:1042B00000F0E6FAC9F30A55C9F313030DB143F44C
:1042C00080130193B8F1000323D068460093FFF7F1
:1042D00084FDDDE90012D0B1C0F1200302FA03F33E
:1042E0000B43C24063610192019BA361002B0CBF91
:1042F000012202222261A5B1A5F2334505443D60A9
:10430000C0F135003060204603B0BDE8F083616144
:10431000EAE701A8FFF761FD019B636120300122FC
:10432000E8E704EB8203A0F2324038601869FFF737
:1043300035FDC0EB4210E5E7914E0008A24E0008A3
:104340009368013B002B10B4936008DA9469A34290
:1043500001DB0A2903D15DF8044B00F0DFB91368D3
:10436000581C1060197008465DF8044B7047F8B58A
:1043700006460F461446D518AC4201D1002007E08E
:1043800014F8011B3A463046FFF7DAFF431CF3D11D
:10439000F8BD00002DE9F04F0D469DB0144698463B
:1043A000064618B1036A0BB9FEF700FC6B6ED9071D
:1043B00005D4AB899A0502D4A86DFEF700FDAB8940
:1043C0001B0701D52B699BB92946304600F0E4F95B
:1043D00070B16B6EDC0704D54FF0FF301DB0BDE847
:1043E000F08FAB899805F7D4A86DFEF7E9FCF3E7E9
:1043F0000023099320238DF82930CDF80C80302339
:10440000DFF8AC818DF82A304FF0010923469A4637
:1044100013F8012B0AB1252AF9D1BAEB040B0BD002
:104420005B46224629463046FFF7A1FF013000F0E7
:10443000A780099A5A4409929AF80030002B00F09C
:104440009F8000234FF0FF32CDE905230AF1010AD6
:10445000049307938DF853301A935446052214F8A9
:10446000011B5348FBF794FE049AD8B9D10644BF08
:1044700020238DF85330130744BF2B238DF853307E
:104480009AF800302A2B15D0079A544600204FF096
:104490000A0C214611F8013B303B092B4BD9B0B136
:1044A000079214E0A0EB080309FA03F31343049303
:1044B000A246D2E7039B191D1B680391002BBBBFCB
:1044C0005B4242F0020207930793B8BF049223783D
:1044D0002E2B0AD163782A2B32D1039B1A1D1B681D
:1044E000039243EAE37302340593DFF8D4A0217802
:1044F00003225046FBF74CFE38B1049BA0EB0A00A8
:104500004022824013430134049314F8011B2948CC
:104510008DF828100622FBF73BFE00283FD0264BE3
:104520001BBB039B073323F0070308330393099B4B
:104530003B4409936AE70CFB02320C460120A8E7D2
:1045400000230134059319464FF00A0C204610F859
:10455000012B303A092A03D9002BC6D00591C4E7B4
:104560000CFB012104460123F0E703AB00932A462C
:10457000124B04A93046FDF7D7FE0746781CD6D16A
:104580006B6ED90705D4AB899A0502D4A86DFEF7E6
:1045900017FCAB895B063FF51FAF09981EE703AB1D
:1045A00000932A46054B04A93046FEF755F9E4E787
:1045B000FC4E0008064F0008292300086F4300083E
:1045C000024F0008B1F90C202DE9F041160705460D
:1045D0000C4654D44B68002B02DC0B6C002B48DDDE
:1045E000E66A002E45D0002312F480522F68216A1B
:1045F0002B6030D0626DA389590705D56368D21A44
:10460000636B0BB1236CD21A0023E66A216A284639
:10461000B047431CA38906D129681D292BD82A4AF3
:10462000CA40D60727D500226260D90422692260D9
:1046300004D5421C01D12B6803B96065616B2F6002
:10464000B9B104F14403994202D02846FFF7FEF9BC
:10465000002363630DE001232846B0470246501C47
:10466000C9D12B68002BC6D01D2B01D0162B1ED113
:104670002F60002022E043F040031BB21BE00F69D3
:10468000002FF6D093070E6808BF4B690F6018BF64
:104690000023A6EB07088B60B8F1000FE9DD216A63
:1046A000A66A43463A462846B047002808DCB4F9D3
:1046B0000C3043F04003A3814FF0FF30BDE8F081A0
:1046C0000744A8EB0008E7E70100402038B50B6974
:1046D00005460C4613B90025284638BD18B1036AB3
:1046E0000BB9FEF763FAB4F90C30002BF3D0626E0D
:1046F000D00704D4990502D4A06DFEF760FB2846CC
:104700002146FFF75FFF636EDA070546E4D4A3890D
:104710009B05E1D4A06DFEF753FBDDE7F8B50E462F
:104720001446054618B1036A0BB9FEF73FFAA369B0
:10473000A360A3891A0701D5236943B921462846F6
:1047400000F02AF818B14FF0FF373846F8BD23685B
:104750002269981A6369F6B28342374605DC21461E
:104760002846FFF7B3FF0028EDD1A368013BA36003
:1047700023685A1C22601E706269431C9A4204D04E
:10478000A389DB07E1D50A2EDFD121462846FFF7B2
:104790009DFF0028D9D0D6E738B5294B05461868C3
:1047A0000C4618B1036A0BB9FEF700FAB4F90C30E5
:1047B000190722D4DA0607D409222A6043F04003FD
:1047C000A3814FF0FF3033E0580712D5616B41B140
:1047D00004F14403994202D02846FFF737F9002339
:1047E0006363A38923F02403A38100236360236907
:1047F0002360A38943F00803A38123694BB9A389EC
:1048000003F42073B3F5007F03D02146284600F05F
:10481000C1F8B4F90C3013F001020AD00022A260F2
:1048200062695242A261226942B913F08000C5D187
:1048300038BD990758BF6269A260F4E70020F7E726
:104840001800002038B5064D0023044608462B60AA
:10485000FDF7F6FA431C02D12B6803B1236038BD83
:10486000C80300200A44914200F1FF3300D1704791
:1048700010B511F8014B03F8014F9142F9D110BD69
:104880001FB514461A46094B1B680546D8684CB13B
:10489000074B0091CDE9013406492B4600F042F860
:1048A00000F0D6F8044B1C46F3E700BF18000020C8
:1048B000174F0008244F0008524F000870B5A1FBA5
:1048C000025434B92946FFF735F9064628B930466F
:1048D00070BD0C2202600026F9E72A462146FEF749
:1048E000F0F9F4E782B001B901A942B14BB11378F4
:1048F0000B601278101E18BF012002B070471046DE
:10490000FBE76FF00100F8E70346084641B1FF2AD4
:1049100004D98A221A604FF0FF3070470A700120D4
:10492000704700000EB403B5014603AB054853F8C9
:10493000042B00680193FFF72DFD02B05DF804EB36
:1049400003B070471800002070B50C46B1F90E1086
:10495000002996B015461E460DDAA38913F0800F84
:104960004FF0000114BF40234FF4806300203160FA
:104970002B6016B070BD6A4600F048F80028ECDBEA
:10498000019901F47041A1F50053594259414FF486
:104990008063EBE78B89F7B59D0706460C4607D584
:1049A00004F14703236023610123636103B0F0BD79
:1049B00001AB6A46FFF7C8FF009F054639463046FF
:1049C000FFF7B8F848B9B4F90C309A05EED423F0E3
:1049D000030343F00203A381E2E7A389206043F0CD
:1049E0008003A381019BC4E904075BB1B4F90E10F5
:1049F000304600F01DF828B1A38923F0030343F0EB
:104A00000103A381A3891D43A581CFE738B5074DD5
:104A100000230446084611462B60FDF758FA431C54
:104A200002D12B6803B1236038BD00BFC80300204A
:104A300038B5064D0023044608462B60FDF74CFAB6
:104A4000431C02D12B6803B1236038BDC80300208A
:104A500008B5062000F02CF80120FDF71FFA1F29E9
:104A600038B505460C4604D9162303604FF0FF30D5
:104A700038BDC26B12B152F821304BB9284600F054
:104A800031F8224601462846BDE8384000F018B803
:104A9000012B0AD0591C03D1162303600120E7E73C
:104AA000002142F82410204698470020E0E700004B
:104AB000024B01461868FFF7D2BF00BF1800002064
:104AC00038B5074D00230446084611462B60FDF714
:104AD000DDF9431C02D12B6803B1236038BD00BF50
:104AE000C8030020FDF7D0B92DE9F047089D0E4618
:104AF00004460F46002B4AD194468C45B2FA82F206
:104B000060D942B1C2F12003974020FA03F30CFAB6
:104B100002FC1F4394404FEA1C4E1FFA8CF6B7FB71
:104B2000FEF1230C0EFB117743EA074301FB06F06D
:104B300098420AD91CEB030301F1FF3780F015817D
:104B4000984240F21281023963441B1AA4B2B3FBAB
:104B5000FEF00EFB103344EA034400FB06F6A642C7
:104B60000AD91CEB040400F1FF3380F00081A64257
:104B700040F2FD806444023840EA0140A41B002159
:104B80001DB1D4400023C5E90043BDE8F0878B4246
:104B900005D90DB1C5E9000100210846F5E7B3FAD2
:104BA00083F1002946D1B34202D3824200F2F5805C
:104BB000841A66EB030201201746002DE5D0C5E9F3
:104BC0000047E2E7002A40F09380A1EB0C034FEA94
:104BD0001C471FFA8CFE0121B3FBF7F607FB1630CA
:104BE000230C43EA00430EFB06F0984208D91CEB65
:104BF000030306F1FF3802D2984200F2D080464605
:104C00001B1AA4B2B3FBF7F007FB103344EA0344CA
:104C10000EFB00FEA64508D91CEB040400F1FF338F
:104C200002D2A64500F2B6801846A4EB0E0440EA74
:104C30000640A5E7C1F120078B4022FA07FC4CEAA9
:104C4000030C06FA01FE20FA07F426FA07F344EAF9
:104C50000E0400FA01F84FEA1C404FEA1449B3FB76
:104C6000F0FE1FFA8CF600FB1E3349EA03430EFBED
:104C700006F9994502FA01F20BD91CEB03030EF178
:104C8000FF3A80F08580994540F28280AEF1020EB5
:104C90006344A3EB0909A4B2B9FBF0F300FB139939
:104CA00044EA094403FB06F6A64208D91CEB0404B7
:104CB00003F1FF3068D2A64266D9023B644443EA5E
:104CC0000E40A41BA0FB02E6B4427346B14652D389
:104CD0004FD05DB1B8EB030264EB090404FA07F7A7
:104CE00022FA01F31F43CC40C5E9007400214CE7D0
:104CF000C2F1200120FA01F30CFA02FC26FA01F1BC
:104D0000964033434FEA1C471FFA8CFEB1FBF7F085
:104D100007FB1016190C41EA064100FB0EF68E4205
:104D200004FA02F408D91CEB010100F1FF382DD27E
:104D30008E422BD902386144891B9BB2B1FBF7F636
:104D400007FB161143EA014306FB0EF1994208D90D
:104D50001CEB030306F1FF3814D2994212D9023E2C
:104D600063445B1A46EA004136E73946EDE61846E9
:104D700002E7F045ADD2BEEB020366EB0C0601384C
:104D8000B146A6E74646ECE7034698E74046D3E738
:104D9000D6467EE76444023847E708460DE7023E00
:104DA00063442DE7F8B500BFF8BC08BC9E467047C9
:0C4DB000F8B500BFF8BC08BC9E46704778
:104DC000636F756E742020203A3A256C640A0000E7
:104DD00000000000000000000102030406070809AB
:104DE000494E4600696E66004E414E006E616E008F
:104DF000300030313233343536373839414243446C
:104E000045460030313233343536373839616263E4
:104E100064656600496E66696E697479004E614E1C
:104E2000005245454E54206D616C6C6F6320737564
:104E300063636565646564002F646174612F6A65EE
:104E40006E6B696E732F776F726B73706163652F12
:104E5000474E552D746F6F6C636861696E2F617278
:104E60006D2D31332F7372632F6E65776C69622DF0
:104E700063796777696E2F6E65776C69622F6C69ED
:104E800062632F7374646C69622F64746F612E6344
:104E90000042616C6C6F6320737563636565646564
:104EA00064002F646174612F6A656E6B696E732F85
:104EB000776F726B73706163652F474E552D746FFA
:104EC0006F6C636861696E2F61726D2D31332F7362
:104ED00072632F6E65776C69622D63796777696E8F
:104EE0002F6E65776C69622F6C6962632F737464CF
:104EF0006C69622F6D707265632E6300232D302BF9
:104F00002000686C4C0065666745464700430050CA
:104F10004F534958002E002C2066756E6374696FDC
:104F20006E3A2000617373657274696F6E2022257A
:104F30007322206661696C65643A2066696C65203D
:104F4000222573222C206C696E652025642573252B
:104F5000730A000005000000190000007D00000039
:104F60000080E03779C34143176E05B5B5B8934665
:104F7000F5F93FE9034F384D321D30F94877825A31
:104F80003CBF737FDD4F1575000000000000F03F4F
:104F90000000000000002440000000000000594014
:104FA0000000000000408F40000000000088C34067
:104FB00000000000006AF8400000000080842E41DC
:104FC00000000000D01263410000000084D7974128
:104FD0000000000065CDCD41000000205FA002422E
:104FE000000000E876483742000000A2941A6D42A3
:104FF000000040E59C30A2420000901EC4BCD64296
:1050000000003426F56B0C430080E03779C3414340
:1050100000A0D8855734764300C84E676DC1AB43B6
:10502000003D9160E458E143408CB5781DAF1544D4
:1050300050EFE2D6E41A4B4492D54D06CFF08044AF
:10504000F64AE1C7022DB544B49DD9794378EA44C4
:105050000020202020202020202028282828282048
:105060002020202020202020202020202020202040
:1050700020881010101010101010101010101010A8
:105080001004040404040404040404101010101098
:105090001010414141414141010101010101010162
:1050A00001010101010101010101010110101010B4
:1050B0001010424242424242020202020202020234
:1050C0000202020202020202020202021010101088
:1050D00020000000000000000000000000000000B0
:1050E00000000000000000000000000000000000C0
:1050F00000000000000000000000000000000000B0
:10510000000000000000000000000000000000009F
:10511000000000000000000000000000000000008F
:10512000000000000000000000000000000000007F
:10513000000000000000000000000000000000006F
:10514000000000000000000000000000000000005F
:04515000000000005B
:085154003CB0FF7F01000000E8
:04515C00050C000836
:04516000DD0B00085B
:1051640001000000100000000024F4000000000012
:10517400030000008C0200201C000020000000003E
:105184008C020020F40200205C03002000000000D8
:10519400000000000000000000000000000000000B
:1051A40000000000000000000000000000000000FB
:1051B40000000000000000000000000000000000EB
:1051C4000000000000000000430000000000000098
:1051D40000000000000000000000000000000000CB
:1051E4000000000000000000430000000000000078
:1051F40000000000000000000000000000000000AB
:105204000000000000000000430000000000000057
:10521400000000000000000000000000000000008A
:105224000000000000000000430000000000000037
:10523400000000000000000000000000000000006A
:105244000000000000000000430000000000000017
:10525400000000000000000000000000000000004A
:1052640000000000000000004300000000000000F7
:10527400000000000000000000000000000000002A
:1052840000000000000000004300000000000000D7
:10529400000000000000000000000000000000000A
:1052A400000000000000000009490008E54800086B
:1052B4000000000050500008154F0008524F00082D
:1052C400524F0008524F0008524F0008524F000836
:1052D400524F0008524F0008524F0008524F000826
:1052E400FFFFFFFFFFFFFFFFFFFFFFFFFFFF0000C8
:1052F4000100415343494900000000000000000040
:105304000000000000000000000000000000000099
:105314000000415343494900000000000000000020
:105324000000000000000000000000000000000079
:045334000000000075
:040000050800219935
:00000001FF
